{
  "contractName": "BeimaAva",
  "abi": [
    {
      "inputs": [
        {
          "internalType": "address",
          "name": "_d",
          "type": "address"
        },
        {
          "internalType": "uint256",
          "name": "_upKeepInterval",
          "type": "uint256"
        }
      ],
      "stateMutability": "nonpayable",
      "type": "constructor"
    },
    {
      "anonymous": false,
      "inputs": [
        {
          "indexed": true,
          "internalType": "address",
          "name": "sender",
          "type": "address"
        },
        {
          "indexed": false,
          "internalType": "address",
          "name": "receiver",
          "type": "address"
        },
        {
          "indexed": true,
          "internalType": "uint256",
          "name": "amountSpent",
          "type": "uint256"
        }
      ],
      "name": "Deposit",
      "type": "event"
    },
    {
      "anonymous": false,
      "inputs": [
        {
          "indexed": true,
          "internalType": "address",
          "name": "previousOwner",
          "type": "address"
        },
        {
          "indexed": true,
          "internalType": "address",
          "name": "newOwner",
          "type": "address"
        }
      ],
      "name": "OwnershipTransferred",
      "type": "event"
    },
    {
      "anonymous": false,
      "inputs": [
        {
          "indexed": false,
          "internalType": "address",
          "name": "account",
          "type": "address"
        }
      ],
      "name": "Paused",
      "type": "event"
    },
    {
      "anonymous": false,
      "inputs": [
        {
          "indexed": false,
          "internalType": "address",
          "name": "user",
          "type": "address"
        },
        {
          "indexed": false,
          "internalType": "string",
          "name": "planDetails",
          "type": "string"
        },
        {
          "indexed": false,
          "internalType": "uint256",
          "name": "lockTime",
          "type": "uint256"
        }
      ],
      "name": "Plan",
      "type": "event"
    },
    {
      "anonymous": false,
      "inputs": [
        {
          "indexed": false,
          "internalType": "string",
          "name": "",
          "type": "string"
        }
      ],
      "name": "Redeem",
      "type": "event"
    },
    {
      "anonymous": false,
      "inputs": [
        {
          "indexed": true,
          "internalType": "address",
          "name": "applicant",
          "type": "address"
        },
        {
          "indexed": true,
          "internalType": "string",
          "name": "applicantDetails",
          "type": "string"
        }
      ],
      "name": "Register",
      "type": "event"
    },
    {
      "anonymous": false,
      "inputs": [
        {
          "indexed": false,
          "internalType": "address",
          "name": "sender",
          "type": "address"
        },
        {
          "indexed": false,
          "internalType": "uint256",
          "name": "amount",
          "type": "uint256"
        }
      ],
      "name": "Supply",
      "type": "event"
    },
    {
      "anonymous": false,
      "inputs": [
        {
          "indexed": true,
          "internalType": "address",
          "name": "sender",
          "type": "address"
        },
        {
          "indexed": false,
          "internalType": "uint256",
          "name": "amount",
          "type": "uint256"
        },
        {
          "indexed": true,
          "internalType": "address",
          "name": "receiver",
          "type": "address"
        }
      ],
      "name": "Transfer",
      "type": "event"
    },
    {
      "anonymous": false,
      "inputs": [
        {
          "indexed": false,
          "internalType": "address",
          "name": "account",
          "type": "address"
        }
      ],
      "name": "Unpaused",
      "type": "event"
    },
    {
      "anonymous": false,
      "inputs": [
        {
          "indexed": false,
          "internalType": "uint256",
          "name": "timeDuration",
          "type": "uint256"
        }
      ],
      "name": "Update",
      "type": "event"
    },
    {
      "anonymous": false,
      "inputs": [
        {
          "indexed": false,
          "internalType": "address",
          "name": "sender",
          "type": "address"
        },
        {
          "indexed": false,
          "internalType": "bool",
          "name": "upkeep",
          "type": "bool"
        }
      ],
      "name": "Upkeep",
      "type": "event"
    },
    {
      "anonymous": false,
      "inputs": [
        {
          "indexed": false,
          "internalType": "address",
          "name": "from",
          "type": "address"
        },
        {
          "indexed": false,
          "internalType": "address",
          "name": "to",
          "type": "address"
        },
        {
          "indexed": false,
          "internalType": "uint256",
          "name": "amount",
          "type": "uint256"
        }
      ],
      "name": "Withdraw",
      "type": "event"
    },
    {
      "inputs": [],
      "name": "D",
      "outputs": [
        {
          "internalType": "contract DInterface",
          "name": "",
          "type": "address"
        }
      ],
      "stateMutability": "view",
      "type": "function",
      "constant": true
    },
    {
      "inputs": [],
      "name": "admin",
      "outputs": [
        {
          "internalType": "address",
          "name": "",
          "type": "address"
        }
      ],
      "stateMutability": "view",
      "type": "function",
      "constant": true
    },
    {
      "inputs": [
        {
          "internalType": "address",
          "name": "",
          "type": "address"
        },
        {
          "internalType": "address",
          "name": "",
          "type": "address"
        }
      ],
      "name": "assets",
      "outputs": [
        {
          "internalType": "uint256",
          "name": "",
          "type": "uint256"
        }
      ],
      "stateMutability": "view",
      "type": "function",
      "constant": true
    },
    {
      "inputs": [],
      "name": "busd",
      "outputs": [
        {
          "internalType": "contract IERC20",
          "name": "",
          "type": "address"
        }
      ],
      "stateMutability": "view",
      "type": "function",
      "constant": true
    },
    {
      "inputs": [
        {
          "internalType": "address",
          "name": "",
          "type": "address"
        }
      ],
      "name": "hasRedeemed",
      "outputs": [
        {
          "internalType": "bool",
          "name": "",
          "type": "bool"
        }
      ],
      "stateMutability": "view",
      "type": "function",
      "constant": true
    },
    {
      "inputs": [
        {
          "internalType": "address",
          "name": "",
          "type": "address"
        }
      ],
      "name": "isRegistered",
      "outputs": [
        {
          "internalType": "bool",
          "name": "",
          "type": "bool"
        }
      ],
      "stateMutability": "view",
      "type": "function",
      "constant": true
    },
    {
      "inputs": [],
      "name": "lastTimeStamp",
      "outputs": [
        {
          "internalType": "uint256",
          "name": "",
          "type": "uint256"
        }
      ],
      "stateMutability": "view",
      "type": "function",
      "constant": true
    },
    {
      "inputs": [],
      "name": "owner",
      "outputs": [
        {
          "internalType": "address",
          "name": "",
          "type": "address"
        }
      ],
      "stateMutability": "view",
      "type": "function",
      "constant": true
    },
    {
      "inputs": [],
      "name": "paused",
      "outputs": [
        {
          "internalType": "bool",
          "name": "",
          "type": "bool"
        }
      ],
      "stateMutability": "view",
      "type": "function",
      "constant": true
    },
    {
      "inputs": [
        {
          "internalType": "address",
          "name": "",
          "type": "address"
        }
      ],
      "name": "pensionServiceApplicant",
      "outputs": [
        {
          "internalType": "uint256",
          "name": "id",
          "type": "uint256"
        },
        {
          "internalType": "address payable",
          "name": "userAddress",
          "type": "address"
        },
        {
          "internalType": "string",
          "name": "userDetails",
          "type": "string"
        },
        {
          "components": [
            {
              "internalType": "address",
              "name": "underlyingAsset",
              "type": "address"
            },
            {
              "internalType": "uint256",
              "name": "depositedAmount",
              "type": "uint256"
            },
            {
              "internalType": "uint256",
              "name": "amountToSpend",
              "type": "uint256"
            },
            {
              "internalType": "uint256",
              "name": "approvedAmountToSpend",
              "type": "uint256"
            },
            {
              "internalType": "uint256",
              "name": "startTime",
              "type": "uint256"
            },
            {
              "internalType": "uint256",
              "name": "timeDurationOfdeposit",
              "type": "uint256"
            },
            {
              "internalType": "uint256",
              "name": "lockTime",
              "type": "uint256"
            },
            {
              "internalType": "string",
              "name": "ipfsHashOfUserPensionDetails",
              "type": "string"
            },
            {
              "internalType": "uint256",
              "name": "userLastRewardBlock",
              "type": "uint256"
            },
            {
              "internalType": "bool",
              "name": "hasPlan",
              "type": "bool"
            }
          ],
          "internalType": "struct BeimaAva.Client",
          "name": "client",
          "type": "tuple"
        }
      ],
      "stateMutability": "view",
      "type": "function",
      "constant": true
    },
    {
      "inputs": [],
      "name": "renounceOwnership",
      "outputs": [],
      "stateMutability": "nonpayable",
      "type": "function"
    },
    {
      "inputs": [
        {
          "internalType": "address",
          "name": "",
          "type": "address"
        }
      ],
      "name": "stakedBalance",
      "outputs": [
        {
          "internalType": "uint256",
          "name": "",
          "type": "uint256"
        }
      ],
      "stateMutability": "view",
      "type": "function",
      "constant": true
    },
    {
      "inputs": [
        {
          "internalType": "address",
          "name": "newOwner",
          "type": "address"
        }
      ],
      "name": "transferOwnership",
      "outputs": [],
      "stateMutability": "nonpayable",
      "type": "function"
    },
    {
      "inputs": [
        {
          "internalType": "address",
          "name": "",
          "type": "address"
        }
      ],
      "name": "unsuppliedAmount",
      "outputs": [
        {
          "internalType": "uint256",
          "name": "",
          "type": "uint256"
        }
      ],
      "stateMutability": "view",
      "type": "function",
      "constant": true
    },
    {
      "inputs": [],
      "name": "upKeepInterval",
      "outputs": [
        {
          "internalType": "uint256",
          "name": "",
          "type": "uint256"
        }
      ],
      "stateMutability": "view",
      "type": "function",
      "constant": true
    },
    {
      "inputs": [
        {
          "internalType": "uint256",
          "name": "",
          "type": "uint256"
        }
      ],
      "name": "users",
      "outputs": [
        {
          "internalType": "uint256",
          "name": "id",
          "type": "uint256"
        },
        {
          "internalType": "address payable",
          "name": "userAddress",
          "type": "address"
        },
        {
          "internalType": "string",
          "name": "userDetails",
          "type": "string"
        },
        {
          "components": [
            {
              "internalType": "address",
              "name": "underlyingAsset",
              "type": "address"
            },
            {
              "internalType": "uint256",
              "name": "depositedAmount",
              "type": "uint256"
            },
            {
              "internalType": "uint256",
              "name": "amountToSpend",
              "type": "uint256"
            },
            {
              "internalType": "uint256",
              "name": "approvedAmountToSpend",
              "type": "uint256"
            },
            {
              "internalType": "uint256",
              "name": "startTime",
              "type": "uint256"
            },
            {
              "internalType": "uint256",
              "name": "timeDurationOfdeposit",
              "type": "uint256"
            },
            {
              "internalType": "uint256",
              "name": "lockTime",
              "type": "uint256"
            },
            {
              "internalType": "string",
              "name": "ipfsHashOfUserPensionDetails",
              "type": "string"
            },
            {
              "internalType": "uint256",
              "name": "userLastRewardBlock",
              "type": "uint256"
            },
            {
              "internalType": "bool",
              "name": "hasPlan",
              "type": "bool"
            }
          ],
          "internalType": "struct BeimaAva.Client",
          "name": "client",
          "type": "tuple"
        }
      ],
      "stateMutability": "view",
      "type": "function",
      "constant": true
    },
    {
      "stateMutability": "payable",
      "type": "receive",
      "payable": true
    },
    {
      "inputs": [
        {
          "internalType": "string",
          "name": "_userDetails",
          "type": "string"
        }
      ],
      "name": "register",
      "outputs": [],
      "stateMutability": "nonpayable",
      "type": "function"
    },
    {
      "inputs": [
        {
          "internalType": "address",
          "name": "_asset",
          "type": "address"
        },
        {
          "internalType": "uint256",
          "name": "_amount",
          "type": "uint256"
        }
      ],
      "name": "depositToken",
      "outputs": [],
      "stateMutability": "nonpayable",
      "type": "function"
    },
    {
      "inputs": [
        {
          "internalType": "address",
          "name": "_asset",
          "type": "address"
        }
      ],
      "name": "withdrawToken",
      "outputs": [],
      "stateMutability": "nonpayable",
      "type": "function"
    },
    {
      "inputs": [
        {
          "internalType": "address",
          "name": "_asset",
          "type": "address"
        }
      ],
      "name": "forcedWithdraw",
      "outputs": [],
      "stateMutability": "nonpayable",
      "type": "function"
    },
    {
      "inputs": [],
      "name": "supply",
      "outputs": [],
      "stateMutability": "nonpayable",
      "type": "function"
    },
    {
      "inputs": [
        {
          "internalType": "address",
          "name": "_cErc20Contract",
          "type": "address"
        }
      ],
      "name": "withdrawFromYieldD",
      "outputs": [],
      "stateMutability": "nonpayable",
      "type": "function"
    },
    {
      "inputs": [
        {
          "internalType": "address",
          "name": "_underlyingAsset",
          "type": "address"
        },
        {
          "internalType": "string",
          "name": "_ipfsHashOfUserPensionDetails",
          "type": "string"
        },
        {
          "internalType": "uint256",
          "name": "_approvedAmountToSpend",
          "type": "uint256"
        },
        {
          "internalType": "uint256",
          "name": "_amountToSpend",
          "type": "uint256"
        },
        {
          "internalType": "uint256",
          "name": "_timeDurationOfDeposit",
          "type": "uint256"
        },
        {
          "internalType": "uint256",
          "name": "_lockTime",
          "type": "uint256"
        }
      ],
      "name": "setPlan",
      "outputs": [],
      "stateMutability": "nonpayable",
      "type": "function"
    },
    {
      "inputs": [
        {
          "internalType": "address",
          "name": "ctokenAddress",
          "type": "address"
        }
      ],
      "name": "getAssetAddress",
      "outputs": [
        {
          "internalType": "address",
          "name": "",
          "type": "address"
        }
      ],
      "stateMutability": "view",
      "type": "function",
      "constant": true
    },
    {
      "inputs": [
        {
          "internalType": "address",
          "name": "_asset",
          "type": "address"
        }
      ],
      "name": "withdrawPenalty",
      "outputs": [],
      "stateMutability": "nonpayable",
      "type": "function"
    },
    {
      "inputs": [],
      "name": "updateLockTime",
      "outputs": [],
      "stateMutability": "nonpayable",
      "type": "function"
    }
  ],
  "bytecode": "0x60806040523480156200001157600080fd5b5060405162005d3538038062005d35833981810160405281019062000037919062000279565b60016000819055506000600160006101000a81548160ff0219169083151502179055506200007a6200006e6200015260201b60201c565b6200015a60201b60201c565b81600260006101000a81548173ffffffffffffffffffffffffffffffffffffffff021916908373ffffffffffffffffffffffffffffffffffffffff160217905550620000de600a6729a2241af62c00006200021d60201b6200440e1790919060201c565b6006819055504260098190555080600a8190555033600860006101000a81548173ffffffffffffffffffffffffffffffffffffffff021916908373ffffffffffffffffffffffffffffffffffffffff1602179055506200014a60036200023560201b620044241760201c565b505062000393565b600033905090565b600060018054906101000a900473ffffffffffffffffffffffffffffffffffffffff169050816001806101000a81548173ffffffffffffffffffffffffffffffffffffffff021916908373ffffffffffffffffffffffffffffffffffffffff1602179055508173ffffffffffffffffffffffffffffffffffffffff168173ffffffffffffffffffffffffffffffffffffffff167f8be0079c531659141344cd1fd0a4f28419497f9722a3daafe3b4186f6b6457e060405160405180910390a35050565b600081836200022d9190620002ba565b905092915050565b6001816000016000828254019250508190555050565b6000815190506200025c816200035f565b92915050565b600081519050620002738162000379565b92915050565b600080604083850312156200028d57600080fd5b60006200029d858286016200024b565b9250506020620002b08582860162000262565b9150509250929050565b6000620002c78262000326565b9150620002d48362000326565b925082620002e757620002e662000330565b5b828204905092915050565b6000620002ff8262000306565b9050919050565b600073ffffffffffffffffffffffffffffffffffffffff82169050919050565b6000819050919050565b7f4e487b7100000000000000000000000000000000000000000000000000000000600052601260045260246000fd5b6200036a81620002f2565b81146200037657600080fd5b50565b620003848162000326565b81146200039057600080fd5b50565b61599280620003a36000396000f3fe6080604052600436106101855760003560e01c80635bc9d2bf116100d1578063a07d6fe81161008a578063de15f0da11610064578063de15f0da1461059a578063f2c298be146105c3578063f2fde38b146105ec578063f851a4401461061557610193565b8063a07d6fe814610509578063c3c5a54714610520578063db78b67c1461055d57610193565b80635bc9d2bf146103f65780635c975abb146104365780636021726714610461578063715018a61461049e57806389476069146104b55780638da5cb5b146104de57610193565b80632ce8abed1161013e5780633ca5b234116101185780633ca5b2341461034e5780633f3b3b27146103795780634537f7d1146103a457806352200447146103cd57610193565b80632ce8abed146102a8578063338b5dea146102e5578063365b98b21461030e57610193565b8063047fc9aa146101985780630f529ba2146101af5780631a15687b146101da5780632108234d146102055780632a1a6031146102425780632b6a72211461027f57610193565b366101935734600481905550005b600080fd5b3480156101a457600080fd5b506101ad610640565b005b3480156101bb57600080fd5b506101c4610d06565b6040516101d1919061522d565b60405180910390f35b3480156101e657600080fd5b506101ef610d2c565b6040516101fc9190615503565b60405180910390f35b34801561021157600080fd5b5061022c600480360381019061022791906146c8565b610d32565b6040516102399190615503565b60405180910390f35b34801561024e57600080fd5b506102696004803603810190610264919061469f565b610d57565b6040516102769190615159565b60405180910390f35b34801561028b57600080fd5b506102a660048036038101906102a1919061469f565b611007565b005b3480156102b457600080fd5b506102cf60048036038101906102ca919061469f565b611279565b6040516102dc9190615503565b60405180910390f35b3480156102f157600080fd5b5061030c600480360381019061030791906147a5565b611291565b005b34801561031a57600080fd5b506103356004803603810190610330919061484b565b611a04565b604051610345949392919061551e565b60405180910390f35b34801561035a57600080fd5b50610363611c40565b6040516103709190615248565b60405180910390f35b34801561038557600080fd5b5061038e611c66565b60405161039b9190615503565b60405180910390f35b3480156103b057600080fd5b506103cb60048036038101906103c6919061469f565b611c6c565b005b3480156103d957600080fd5b506103f460048036038101906103ef919061469f565b61270d565b005b34801561040257600080fd5b5061041d6004803603810190610418919061469f565b612d8d565b60405161042d949392919061551e565b60405180910390f35b34801561044257600080fd5b5061044b612fb9565b6040516104589190615212565b60405180910390f35b34801561046d57600080fd5b506104886004803603810190610483919061469f565b612fd0565b6040516104959190615503565b60405180910390f35b3480156104aa57600080fd5b506104b3612fe8565b005b3480156104c157600080fd5b506104dc60048036038101906104d7919061469f565b613070565b005b3480156104ea57600080fd5b506104f36139e0565b6040516105009190615159565b60405180910390f35b34801561051557600080fd5b5061051e613a08565b005b34801561052c57600080fd5b506105476004803603810190610542919061469f565b613ae7565b6040516105549190615212565b60405180910390f35b34801561056957600080fd5b50610584600480360381019061057f919061469f565b613b07565b6040516105919190615212565b60405180910390f35b3480156105a657600080fd5b506105c160048036038101906105bc9190614704565b613b27565b005b3480156105cf57600080fd5b506105ea60048036038101906105e5919061480a565b613dec565b005b3480156105f857600080fd5b50610613600480360381019061060e919061469f565b6142f0565b005b34801561062157600080fd5b5061062a6143e8565b6040516106379190615159565b60405180910390f35b600f60003373ffffffffffffffffffffffffffffffffffffffff1673ffffffffffffffffffffffffffffffffffffffff16815260200190815260200160002060009054906101000a900460ff166106cc576040517f08c379a00000000000000000000000000000000000000000000000000000000081526004016106c390615343565b60405180910390fd5b6000600d60003373ffffffffffffffffffffffffffffffffffffffff1673ffffffffffffffffffffffffffffffffffffffff168152602001908152602001600020541161074e576040517f08c379a0000000000000000000000000000000000000000000000000000000008152600401610745906153c3565b60405180910390fd5b6000600b60003373ffffffffffffffffffffffffffffffffffffffff1673ffffffffffffffffffffffffffffffffffffffff168152602001908152602001600020604051806080016040529081600082015481526020016001820160009054906101000a900473ffffffffffffffffffffffffffffffffffffffff1673ffffffffffffffffffffffffffffffffffffffff1673ffffffffffffffffffffffffffffffffffffffff16815260200160028201805461080a90615818565b80601f016020809104026020016040519081016040528092919081815260200182805461083690615818565b80156108835780601f1061085857610100808354040283529160200191610883565b820191906000526020600020905b81548152906001019060200180831161086657829003601f168201915b5050505050815260200160038201604051806101400160405290816000820160009054906101000a900473ffffffffffffffffffffffffffffffffffffffff1673ffffffffffffffffffffffffffffffffffffffff1673ffffffffffffffffffffffffffffffffffffffff16815260200160018201548152602001600282015481526020016003820154815260200160048201548152602001600582015481526020016006820154815260200160078201805461093f90615818565b80601f016020809104026020016040519081016040528092919081815260200182805461096b90615818565b80156109b85780601f1061098d576101008083540402835291602001916109b8565b820191906000526020600020905b81548152906001019060200180831161099b57829003601f168201915b50505050508152602001600882015481526020016009820160009054906101000a900460ff16151515158152505081525050905080606001516000015173ffffffffffffffffffffffffffffffffffffffff1663095ea7b3600260009054906101000a900473ffffffffffffffffffffffffffffffffffffffff16600d60003373ffffffffffffffffffffffffffffffffffffffff1673ffffffffffffffffffffffffffffffffffffffff168152602001908152602001600020546040518363ffffffff1660e01b8152600401610a909291906151e9565b602060405180830381600087803b158015610aaa57600080fd5b505af1158015610abe573d6000803e3d6000fd5b505050506040513d601f19601f82011682018060405250810190610ae291906147e1565b50610b74600d60003373ffffffffffffffffffffffffffffffffffffffff1673ffffffffffffffffffffffffffffffffffffffff16815260200190815260200160002054600e60003373ffffffffffffffffffffffffffffffffffffffff1673ffffffffffffffffffffffffffffffffffffffff1681526020019081526020016000205461443a90919063ffffffff16565b600e60003373ffffffffffffffffffffffffffffffffffffffff1673ffffffffffffffffffffffffffffffffffffffff16815260200190815260200160002081905550610c48600d60003373ffffffffffffffffffffffffffffffffffffffff1673ffffffffffffffffffffffffffffffffffffffff16815260200190815260200160002054600d60003373ffffffffffffffffffffffffffffffffffffffff1673ffffffffffffffffffffffffffffffffffffffff1681526020019081526020016000205461445090919063ffffffff16565b600d60003373ffffffffffffffffffffffffffffffffffffffff1673ffffffffffffffffffffffffffffffffffffffff168152602001908152602001600020819055507fadacf827efe383160192c092d8658471945c074229a9746679b5e2b74adff19133600e60003373ffffffffffffffffffffffffffffffffffffffff1673ffffffffffffffffffffffffffffffffffffffff16815260200190815260200160002054604051610cfb9291906151e9565b60405180910390a150565b600260009054906101000a900473ffffffffffffffffffffffffffffffffffffffff1681565b600a5481565b600c602052816000526040600020602052806000526040600020600091509150505481565b600080600b60003373ffffffffffffffffffffffffffffffffffffffff1673ffffffffffffffffffffffffffffffffffffffff168152602001908152602001600020604051806080016040529081600082015481526020016001820160009054906101000a900473ffffffffffffffffffffffffffffffffffffffff1673ffffffffffffffffffffffffffffffffffffffff1673ffffffffffffffffffffffffffffffffffffffff168152602001600282018054610e1490615818565b80601f0160208091040260200160405190810160405280929190818152602001828054610e4090615818565b8015610e8d5780601f10610e6257610100808354040283529160200191610e8d565b820191906000526020600020905b815481529060010190602001808311610e7057829003601f168201915b5050505050815260200160038201604051806101400160405290816000820160009054906101000a900473ffffffffffffffffffffffffffffffffffffffff1673ffffffffffffffffffffffffffffffffffffffff1673ffffffffffffffffffffffffffffffffffffffff168152602001600182015481526020016002820154815260200160038201548152602001600482015481526020016005820154815260200160068201548152602001600782018054610f4990615818565b80601f0160208091040260200160405190810160405280929190818152602001828054610f7590615818565b8015610fc25780601f10610f9757610100808354040283529160200191610fc2565b820191906000526020600020905b815481529060010190602001808311610fa557829003601f168201915b50505050508152602001600882015481526020016009820160009054906101000a900460ff161515151581525050815250509050806060015160000151915050919050565b61100f614466565b73ffffffffffffffffffffffffffffffffffffffff1661102d6139e0565b73ffffffffffffffffffffffffffffffffffffffff1614611083576040517f08c379a000000000000000000000000000000000000000000000000000000000815260040161107a906153a3565b60405180910390fd5b6000600c60008373ffffffffffffffffffffffffffffffffffffffff1673ffffffffffffffffffffffffffffffffffffffff16815260200190815260200160002060003073ffffffffffffffffffffffffffffffffffffffff1673ffffffffffffffffffffffffffffffffffffffff1681526020019081526020016000205411611142576040517f08c379a000000000000000000000000000000000000000000000000000000000815260040161113990615463565b60405180910390fd5b8073ffffffffffffffffffffffffffffffffffffffff1663a9059cbb600860009054906101000a900473ffffffffffffffffffffffffffffffffffffffff16600c60008573ffffffffffffffffffffffffffffffffffffffff1673ffffffffffffffffffffffffffffffffffffffff16815260200190815260200160002060003073ffffffffffffffffffffffffffffffffffffffff1673ffffffffffffffffffffffffffffffffffffffff168152602001908152602001600020546040518363ffffffff1660e01b815260040161121b9291906151e9565b602060405180830381600087803b15801561123557600080fd5b505af1158015611249573d6000803e3d6000fd5b505050506040513d601f19601f8201168201806040525081019061126d91906147e1565b61127657600080fd5b50565b600d6020528060005260406000206000915090505481565b6000600b60003373ffffffffffffffffffffffffffffffffffffffff1673ffffffffffffffffffffffffffffffffffffffff168152602001908152602001600020604051806080016040529081600082015481526020016001820160009054906101000a900473ffffffffffffffffffffffffffffffffffffffff1673ffffffffffffffffffffffffffffffffffffffff1673ffffffffffffffffffffffffffffffffffffffff16815260200160028201805461134d90615818565b80601f016020809104026020016040519081016040528092919081815260200182805461137990615818565b80156113c65780601f1061139b576101008083540402835291602001916113c6565b820191906000526020600020905b8154815290600101906020018083116113a957829003601f168201915b5050505050815260200160038201604051806101400160405290816000820160009054906101000a900473ffffffffffffffffffffffffffffffffffffffff1673ffffffffffffffffffffffffffffffffffffffff1673ffffffffffffffffffffffffffffffffffffffff16815260200160018201548152602001600282015481526020016003820154815260200160048201548152602001600582015481526020016006820154815260200160078201805461148290615818565b80601f01602080910402602001604051908101604052809291908181526020018280546114ae90615818565b80156114fb5780601f106114d0576101008083540402835291602001916114fb565b820191906000526020600020905b8154815290600101906020018083116114de57829003601f168201915b50505050508152602001600882015481526020016009820160009054906101000a900460ff1615151515815250508152505090508060600151604001518160600151606001511015611582576040517f08c379a000000000000000000000000000000000000000000000000000000000815260040161157990615303565b60405180910390fd5b600f60003373ffffffffffffffffffffffffffffffffffffffff1673ffffffffffffffffffffffffffffffffffffffff16815260200190815260200160002060009054906101000a900460ff1661160e576040517f08c379a000000000000000000000000000000000000000000000000000000000815260040161160590615343565b60405180910390fd5b600073ffffffffffffffffffffffffffffffffffffffff168373ffffffffffffffffffffffffffffffffffffffff16141561167e576040517f08c379a0000000000000000000000000000000000000000000000000000000008152600401611675906154e3565b60405180910390fd5b8273ffffffffffffffffffffffffffffffffffffffff166323b872dd3330856040518463ffffffff1660e01b81526004016116bb93929190615174565b602060405180830381600087803b1580156116d557600080fd5b505af11580156116e9573d6000803e3d6000fd5b505050506040513d601f19601f8201168201806040525081019061170d91906147e1565b61174c576040517f08c379a000000000000000000000000000000000000000000000000000000000815260040161174390615443565b60405180910390fd5b6117db82600c60008673ffffffffffffffffffffffffffffffffffffffff1673ffffffffffffffffffffffffffffffffffffffff16815260200190815260200160002060003373ffffffffffffffffffffffffffffffffffffffff1673ffffffffffffffffffffffffffffffffffffffff1681526020019081526020016000205461443a90919063ffffffff16565b600c60008573ffffffffffffffffffffffffffffffffffffffff1673ffffffffffffffffffffffffffffffffffffffff16815260200190815260200160002060003373ffffffffffffffffffffffffffffffffffffffff1673ffffffffffffffffffffffffffffffffffffffff168152602001908152602001600020819055506118ad82600d60003373ffffffffffffffffffffffffffffffffffffffff1673ffffffffffffffffffffffffffffffffffffffff1681526020019081526020016000205461443a90919063ffffffff16565b600d60003373ffffffffffffffffffffffffffffffffffffffff1673ffffffffffffffffffffffffffffffffffffffff1681526020019081526020016000208190555061190b8282606001516060015161445090919063ffffffff16565b8160600151606001818152505061192e600160065461443a90919063ffffffff16565b600681905550600c60008473ffffffffffffffffffffffffffffffffffffffff1673ffffffffffffffffffffffffffffffffffffffff16815260200190815260200160002060003373ffffffffffffffffffffffffffffffffffffffff1673ffffffffffffffffffffffffffffffffffffffff168152602001908152602001600020543373ffffffffffffffffffffffffffffffffffffffff167f5548c837ab068cf56a2c2479df0882a4922fd203edb7517321831d95078c5f62306040516119f79190615159565b60405180910390a3505050565b60118181548110611a1457600080fd5b90600052602060002090600d02016000915090508060000154908060010160009054906101000a900473ffffffffffffffffffffffffffffffffffffffff1690806002018054611a6390615818565b80601f0160208091040260200160405190810160405280929190818152602001828054611a8f90615818565b8015611adc5780601f10611ab157610100808354040283529160200191611adc565b820191906000526020600020905b815481529060010190602001808311611abf57829003601f168201915b50505050509080600301604051806101400160405290816000820160009054906101000a900473ffffffffffffffffffffffffffffffffffffffff1673ffffffffffffffffffffffffffffffffffffffff1673ffffffffffffffffffffffffffffffffffffffff168152602001600182015481526020016002820154815260200160038201548152602001600482015481526020016005820154815260200160068201548152602001600782018054611b9490615818565b80601f0160208091040260200160405190810160405280929190818152602001828054611bc090615818565b8015611c0d5780601f10611be257610100808354040283529160200191611c0d565b820191906000526020600020905b815481529060010190602001808311611bf057829003601f168201915b50505050508152602001600882015481526020016009820160009054906101000a900460ff161515151581525050905084565b600760009054906101000a900473ffffffffffffffffffffffffffffffffffffffff1681565b60095481565b6000600c60008373ffffffffffffffffffffffffffffffffffffffff1673ffffffffffffffffffffffffffffffffffffffff16815260200190815260200160002060003373ffffffffffffffffffffffffffffffffffffffff1673ffffffffffffffffffffffffffffffffffffffff168152602001908152602001600020541015611d2c576040517f08c379a0000000000000000000000000000000000000000000000000000000008152600401611d2390615403565b60405180910390fd5b600073ffffffffffffffffffffffffffffffffffffffff168173ffffffffffffffffffffffffffffffffffffffff161415611d6657600080fd5b6000600b60003373ffffffffffffffffffffffffffffffffffffffff1673ffffffffffffffffffffffffffffffffffffffff16815260200190815260200160002090506000611e4e6014611e406064600c60008873ffffffffffffffffffffffffffffffffffffffff1673ffffffffffffffffffffffffffffffffffffffff16815260200190815260200160002060003373ffffffffffffffffffffffffffffffffffffffff1673ffffffffffffffffffffffffffffffffffffffff1681526020019081526020016000205461440e90919063ffffffff16565b61446e90919063ffffffff16565b9050611edf81600c60008673ffffffffffffffffffffffffffffffffffffffff1673ffffffffffffffffffffffffffffffffffffffff16815260200190815260200160002060003073ffffffffffffffffffffffffffffffffffffffff1673ffffffffffffffffffffffffffffffffffffffff1681526020019081526020016000205461443a90919063ffffffff16565b600c60008573ffffffffffffffffffffffffffffffffffffffff1673ffffffffffffffffffffffffffffffffffffffff16815260200190815260200160002060003073ffffffffffffffffffffffffffffffffffffffff1673ffffffffffffffffffffffffffffffffffffffff16815260200190815260200160002081905550600080600d60003373ffffffffffffffffffffffffffffffffffffffff1673ffffffffffffffffffffffffffffffffffffffff1681526020019081526020016000205411156123ec57612088600d60003373ffffffffffffffffffffffffffffffffffffffff1673ffffffffffffffffffffffffffffffffffffffff1681526020019081526020016000205461207a84600c60008973ffffffffffffffffffffffffffffffffffffffff1673ffffffffffffffffffffffffffffffffffffffff16815260200190815260200160002060003373ffffffffffffffffffffffffffffffffffffffff1673ffffffffffffffffffffffffffffffffffffffff1681526020019081526020016000205461445090919063ffffffff16565b61443a90919063ffffffff16565b905061211b600d60003373ffffffffffffffffffffffffffffffffffffffff1673ffffffffffffffffffffffffffffffffffffffff16815260200190815260200160002054600d60003373ffffffffffffffffffffffffffffffffffffffff1673ffffffffffffffffffffffffffffffffffffffff1681526020019081526020016000205461445090919063ffffffff16565b600d60003373ffffffffffffffffffffffffffffffffffffffff1673ffffffffffffffffffffffffffffffffffffffff16815260200190815260200160002081905550612269600c60008673ffffffffffffffffffffffffffffffffffffffff1673ffffffffffffffffffffffffffffffffffffffff16815260200190815260200160002060003373ffffffffffffffffffffffffffffffffffffffff1673ffffffffffffffffffffffffffffffffffffffff16815260200190815260200160002054600c60008773ffffffffffffffffffffffffffffffffffffffff1673ffffffffffffffffffffffffffffffffffffffff16815260200190815260200160002060003373ffffffffffffffffffffffffffffffffffffffff1673ffffffffffffffffffffffffffffffffffffffff1681526020019081526020016000205461445090919063ffffffff16565b600c60008673ffffffffffffffffffffffffffffffffffffffff1673ffffffffffffffffffffffffffffffffffffffff16815260200190815260200160002060003373ffffffffffffffffffffffffffffffffffffffff1673ffffffffffffffffffffffffffffffffffffffff168152602001908152602001600020819055508373ffffffffffffffffffffffffffffffffffffffff1663a9059cbb33836040518363ffffffff1660e01b81526004016123249291906151e9565b602060405180830381600087803b15801561233e57600080fd5b505af1158015612352573d6000803e3d6000fd5b505050506040513d601f19601f8201168201806040525081019061237691906147e1565b61237f57600080fd5b60008360030160090160006101000a81548160ff021916908315150217905550600083600301600601819055507f9b1bfa7fa9ee420a16e124f794c35ac9f90472acc99140eb2f6447c714cad8eb3033836040516123df93929190615174565b60405180910390a1612707565b61247b82600c60008773ffffffffffffffffffffffffffffffffffffffff1673ffffffffffffffffffffffffffffffffffffffff16815260200190815260200160002060003373ffffffffffffffffffffffffffffffffffffffff1673ffffffffffffffffffffffffffffffffffffffff1681526020019081526020016000205461445090919063ffffffff16565b9050612588600c60008673ffffffffffffffffffffffffffffffffffffffff1673ffffffffffffffffffffffffffffffffffffffff16815260200190815260200160002060003373ffffffffffffffffffffffffffffffffffffffff1673ffffffffffffffffffffffffffffffffffffffff16815260200190815260200160002054600c60008773ffffffffffffffffffffffffffffffffffffffff1673ffffffffffffffffffffffffffffffffffffffff16815260200190815260200160002060003373ffffffffffffffffffffffffffffffffffffffff1673ffffffffffffffffffffffffffffffffffffffff1681526020019081526020016000205461445090919063ffffffff16565b600c60008673ffffffffffffffffffffffffffffffffffffffff1673ffffffffffffffffffffffffffffffffffffffff16815260200190815260200160002060003373ffffffffffffffffffffffffffffffffffffffff1673ffffffffffffffffffffffffffffffffffffffff168152602001908152602001600020819055508373ffffffffffffffffffffffffffffffffffffffff1663a9059cbb33836040518363ffffffff1660e01b81526004016126439291906151e9565b602060405180830381600087803b15801561265d57600080fd5b505af1158015612671573d6000803e3d6000fd5b505050506040513d601f19601f8201168201806040525081019061269591906147e1565b61269e57600080fd5b60008360030160090160006101000a81548160ff021916908315150217905550600083600301600601819055507f9b1bfa7fa9ee420a16e124f794c35ac9f90472acc99140eb2f6447c714cad8eb3033836040516126fe93929190615174565b60405180910390a15b50505050565b60026000541415612753576040517f08c379a000000000000000000000000000000000000000000000000000000000815260040161274a906154a3565b60405180910390fd5b6002600081905550600f60003373ffffffffffffffffffffffffffffffffffffffff1673ffffffffffffffffffffffffffffffffffffffff16815260200190815260200160002060009054906101000a900460ff166127e7576040517f08c379a00000000000000000000000000000000000000000000000000000000081526004016127de90615343565b60405180910390fd5b6000600e60003373ffffffffffffffffffffffffffffffffffffffff1673ffffffffffffffffffffffffffffffffffffffff1681526020019081526020016000205411612869576040517f08c379a0000000000000000000000000000000000000000000000000000000008152600401612860906154c3565b60405180910390fd5b6000600b60003373ffffffffffffffffffffffffffffffffffffffff1673ffffffffffffffffffffffffffffffffffffffff168152602001908152602001600020604051806080016040529081600082015481526020016001820160009054906101000a900473ffffffffffffffffffffffffffffffffffffffff1673ffffffffffffffffffffffffffffffffffffffff1673ffffffffffffffffffffffffffffffffffffffff16815260200160028201805461292590615818565b80601f016020809104026020016040519081016040528092919081815260200182805461295190615818565b801561299e5780601f106129735761010080835404028352916020019161299e565b820191906000526020600020905b81548152906001019060200180831161298157829003601f168201915b5050505050815260200160038201604051806101400160405290816000820160009054906101000a900473ffffffffffffffffffffffffffffffffffffffff1673ffffffffffffffffffffffffffffffffffffffff1673ffffffffffffffffffffffffffffffffffffffff168152602001600182015481526020016002820154815260200160038201548152602001600482015481526020016005820154815260200160068201548152602001600782018054612a5a90615818565b80601f0160208091040260200160405190810160405280929190818152602001828054612a8690615818565b8015612ad35780601f10612aa857610100808354040283529160200191612ad3565b820191906000526020600020905b815481529060010190602001808311612ab657829003601f168201915b50505050508152602001600882015481526020016009820160009054906101000a900460ff161515151581525050815250509050806060015160c001514211612b51576040517f08c379a0000000000000000000000000000000000000000000000000000000008152600401612b4890615423565b60405180910390fd5b6000600260009054906101000a900473ffffffffffffffffffffffffffffffffffffffff1673ffffffffffffffffffffffffffffffffffffffff16632e1a7d4d600e60003373ffffffffffffffffffffffffffffffffffffffff1673ffffffffffffffffffffffffffffffffffffffff168152602001908152602001600020546040518263ffffffff1660e01b8152600401612bed9190615503565b600060405180830381600087803b158015612c0757600080fd5b505af1158015612c1b573d6000803e3d6000fd5b505050506001601060003373ffffffffffffffffffffffffffffffffffffffff1673ffffffffffffffffffffffffffffffffffffffff16815260200190815260200160002060006101000a81548160ff021916908315150217905550612d08600e60003373ffffffffffffffffffffffffffffffffffffffff1673ffffffffffffffffffffffffffffffffffffffff16815260200190815260200160002054600e60003373ffffffffffffffffffffffffffffffffffffffff1673ffffffffffffffffffffffffffffffffffffffff1681526020019081526020016000205461445090919063ffffffff16565b600e60003373ffffffffffffffffffffffffffffffffffffffff1673ffffffffffffffffffffffffffffffffffffffff168152602001908152602001600020819055507ffaaa716cf73cc51702fa1de9713c82c6cd37a48c3abd70d72ef7e2051b60788b604051612d7890615383565b60405180910390a15050600160008190555050565b600b6020528060005260406000206000915090508060000154908060010160009054906101000a900473ffffffffffffffffffffffffffffffffffffffff1690806002018054612ddc90615818565b80601f0160208091040260200160405190810160405280929190818152602001828054612e0890615818565b8015612e555780601f10612e2a57610100808354040283529160200191612e55565b820191906000526020600020905b815481529060010190602001808311612e3857829003601f168201915b50505050509080600301604051806101400160405290816000820160009054906101000a900473ffffffffffffffffffffffffffffffffffffffff1673ffffffffffffffffffffffffffffffffffffffff1673ffffffffffffffffffffffffffffffffffffffff168152602001600182015481526020016002820154815260200160038201548152602001600482015481526020016005820154815260200160068201548152602001600782018054612f0d90615818565b80601f0160208091040260200160405190810160405280929190818152602001828054612f3990615818565b8015612f865780601f10612f5b57610100808354040283529160200191612f86565b820191906000526020600020905b815481529060010190602001808311612f6957829003601f168201915b50505050508152602001600882015481526020016009820160009054906101000a900460ff161515151581525050905084565b6000600160009054906101000a900460ff16905090565b600e6020528060005260406000206000915090505481565b612ff0614466565b73ffffffffffffffffffffffffffffffffffffffff1661300e6139e0565b73ffffffffffffffffffffffffffffffffffffffff1614613064576040517f08c379a000000000000000000000000000000000000000000000000000000000815260040161305b906153a3565b60405180910390fd5b61306e6000614484565b565b600260005414156130b6576040517f08c379a00000000000000000000000000000000000000000000000000000000081526004016130ad906154a3565b60405180910390fd5b60026000819055506130c6612fb9565b15613106576040517f08c379a00000000000000000000000000000000000000000000000000000000081526004016130fd906152c3565b60405180910390fd5b6000600c60008373ffffffffffffffffffffffffffffffffffffffff1673ffffffffffffffffffffffffffffffffffffffff16815260200190815260200160002060003373ffffffffffffffffffffffffffffffffffffffff1673ffffffffffffffffffffffffffffffffffffffff16815260200190815260200160002054116131c5576040517f08c379a00000000000000000000000000000000000000000000000000000000081526004016131bc906152e3565b60405180910390fd5b600073ffffffffffffffffffffffffffffffffffffffff168173ffffffffffffffffffffffffffffffffffffffff1614156131ff57600080fd5b6000600b60003373ffffffffffffffffffffffffffffffffffffffff1673ffffffffffffffffffffffffffffffffffffffff16815260200190815260200160002090508060030160060154421161328b576040517f08c379a000000000000000000000000000000000000000000000000000000000815260040161328290615423565b60405180910390fd5b6000600d60003373ffffffffffffffffffffffffffffffffffffffff1673ffffffffffffffffffffffffffffffffffffffff1681526020019081526020016000205411156137dd578173ffffffffffffffffffffffffffffffffffffffff1663a9059cbb33600d60003373ffffffffffffffffffffffffffffffffffffffff1673ffffffffffffffffffffffffffffffffffffffff168152602001908152602001600020546040518363ffffffff1660e01b815260040161334d9291906151e9565b602060405180830381600087803b15801561336757600080fd5b505af115801561337b573d6000803e3d6000fd5b505050506040513d601f19601f8201168201806040525081019061339f91906147e1565b6133a857600080fd5b6000613478600d60003373ffffffffffffffffffffffffffffffffffffffff1673ffffffffffffffffffffffffffffffffffffffff16815260200190815260200160002054600c60008673ffffffffffffffffffffffffffffffffffffffff1673ffffffffffffffffffffffffffffffffffffffff16815260200190815260200160002060003373ffffffffffffffffffffffffffffffffffffffff1673ffffffffffffffffffffffffffffffffffffffff1681526020019081526020016000205461445090919063ffffffff16565b905061350b600d60003373ffffffffffffffffffffffffffffffffffffffff1673ffffffffffffffffffffffffffffffffffffffff16815260200190815260200160002054600d60003373ffffffffffffffffffffffffffffffffffffffff1673ffffffffffffffffffffffffffffffffffffffff1681526020019081526020016000205461445090919063ffffffff16565b600d60003373ffffffffffffffffffffffffffffffffffffffff1673ffffffffffffffffffffffffffffffffffffffff16815260200190815260200160002081905550613659600c60008573ffffffffffffffffffffffffffffffffffffffff1673ffffffffffffffffffffffffffffffffffffffff16815260200190815260200160002060003373ffffffffffffffffffffffffffffffffffffffff1673ffffffffffffffffffffffffffffffffffffffff16815260200190815260200160002054600c60008673ffffffffffffffffffffffffffffffffffffffff1673ffffffffffffffffffffffffffffffffffffffff16815260200190815260200160002060003373ffffffffffffffffffffffffffffffffffffffff1673ffffffffffffffffffffffffffffffffffffffff1681526020019081526020016000205461445090919063ffffffff16565b600c60008573ffffffffffffffffffffffffffffffffffffffff1673ffffffffffffffffffffffffffffffffffffffff16815260200190815260200160002060003373ffffffffffffffffffffffffffffffffffffffff1673ffffffffffffffffffffffffffffffffffffffff168152602001908152602001600020819055508273ffffffffffffffffffffffffffffffffffffffff1663a9059cbb33836040518363ffffffff1660e01b81526004016137149291906151e9565b602060405180830381600087803b15801561372e57600080fd5b505af1158015613742573d6000803e3d6000fd5b505050506040513d601f19601f8201168201806040525081019061376691906147e1565b61376f57600080fd5b60008260030160090160006101000a81548160ff021916908315150217905550600082600301600601819055507f9b1bfa7fa9ee420a16e124f794c35ac9f90472acc99140eb2f6447c714cad8eb3033836040516137cf93929190615174565b60405180910390a1506139d4565b8173ffffffffffffffffffffffffffffffffffffffff1663a9059cbb33600c60008673ffffffffffffffffffffffffffffffffffffffff1673ffffffffffffffffffffffffffffffffffffffff16815260200190815260200160002060003373ffffffffffffffffffffffffffffffffffffffff1673ffffffffffffffffffffffffffffffffffffffff168152602001908152602001600020546040518363ffffffff1660e01b81526004016138949291906151e9565b602060405180830381600087803b1580156138ae57600080fd5b505af11580156138c2573d6000803e3d6000fd5b505050506040513d601f19601f820116820180604052508101906138e691906147e1565b6138ef57600080fd5b60008160030160090160006101000a81548160ff021916908315150217905550600081600301600601819055507f9b1bfa7fa9ee420a16e124f794c35ac9f90472acc99140eb2f6447c714cad8eb3033600c60008673ffffffffffffffffffffffffffffffffffffffff1673ffffffffffffffffffffffffffffffffffffffff16815260200190815260200160002060003373ffffffffffffffffffffffffffffffffffffffff1673ffffffffffffffffffffffffffffffffffffffff168152602001908152602001600020546040516139cb93929190615174565b60405180910390a15b50600160008190555050565b600060018054906101000a900473ffffffffffffffffffffffffffffffffffffffff16905090565b600f60003373ffffffffffffffffffffffffffffffffffffffff1673ffffffffffffffffffffffffffffffffffffffff16815260200190815260200160002060009054906101000a900460ff16613a94576040517f08c379a0000000000000000000000000000000000000000000000000000000008152600401613a8b90615263565b60405180910390fd5b6000600b60003373ffffffffffffffffffffffffffffffffffffffff1673ffffffffffffffffffffffffffffffffffffffff16815260200190815260200160002090506000816003016006018190555050565b600f6020528060005260406000206000915054906101000a900460ff1681565b60106020528060005260406000206000915054906101000a900460ff1681565b828411613b69576040517f08c379a0000000000000000000000000000000000000000000000000000000008152600401613b6090615483565b60405180910390fd5b60008311613bac576040517f08c379a0000000000000000000000000000000000000000000000000000000008152600401613ba3906153e3565b60405180910390fd5b600f60003373ffffffffffffffffffffffffffffffffffffffff1673ffffffffffffffffffffffffffffffffffffffff16815260200190815260200160002060009054906101000a900460ff16613c38576040517f08c379a0000000000000000000000000000000000000000000000000000000008152600401613c2f90615363565b60405180910390fd5b6000600b60003373ffffffffffffffffffffffffffffffffffffffff1673ffffffffffffffffffffffffffffffffffffffff16815260200190815260200160002090506000816003016006015414613cc5576040517f08c379a0000000000000000000000000000000000000000000000000000000008152600401613cbc90615323565b60405180910390fd5b868160030160000160006101000a81548173ffffffffffffffffffffffffffffffffffffffff021916908373ffffffffffffffffffffffffffffffffffffffff160217905550613d1e824261443a90919063ffffffff16565b8160030160060181905550613d3c834261443a90919063ffffffff16565b816003016005018190555085816003016007019080519060200190613d62929190614555565b5084816003016003018190555083816003016002018190555060018160030160090160006101000a81548160ff0219169083151502179055507f0a342f2e207c3c328a10158ad0b71a9e64a10e319c5d635be24f8c7e418ea6e433826003016007018360030160060154604051613ddb939291906151ab565b60405180910390a150505050505050565b600f60003373ffffffffffffffffffffffffffffffffffffffff1673ffffffffffffffffffffffffffffffffffffffff16815260200190815260200160002060009054906101000a900460ff1615613e79576040517f08c379a0000000000000000000000000000000000000000000000000000000008152600401613e70906152a3565b60405180910390fd5b6000604051806101400160405280600073ffffffffffffffffffffffffffffffffffffffff168152602001600081526020016000815260200160008152602001428152602001600081526020016000815260200160405180602001604052806000815250815260200143815260200160001515815250905060006040518060800160405280613f086003614547565b81526020013373ffffffffffffffffffffffffffffffffffffffff16815260200184815260200183815250905080600b60003373ffffffffffffffffffffffffffffffffffffffff1673ffffffffffffffffffffffffffffffffffffffff1681526020019081526020016000206000820151816000015560208201518160010160006101000a81548173ffffffffffffffffffffffffffffffffffffffff021916908373ffffffffffffffffffffffffffffffffffffffff1602179055506040820151816002019080519060200190613fe2929190614555565b5060608201518160030160008201518160000160006101000a81548173ffffffffffffffffffffffffffffffffffffffff021916908373ffffffffffffffffffffffffffffffffffffffff1602179055506020820151816001015560408201518160020155606082015181600301556080820151816004015560a0820151816005015560c0820151816006015560e082015181600701908051906020019061408b929190614555565b5061010082015181600801556101208201518160090160006101000a81548160ff021916908315150217905550505090505060118190806001815401808255809150506001900390600052602060002090600d02016000909190919091506000820151816000015560208201518160010160006101000a81548173ffffffffffffffffffffffffffffffffffffffff021916908373ffffffffffffffffffffffffffffffffffffffff1602179055506040820151816002019080519060200190614156929190614555565b5060608201518160030160008201518160000160006101000a81548173ffffffffffffffffffffffffffffffffffffffff021916908373ffffffffffffffffffffffffffffffffffffffff1602179055506020820151816001015560408201518160020155606082015181600301556080820151816004015560a0820151816005015560c0820151816006015560e08201518160070190805190602001906141ff929190614555565b5061010082015181600801556101208201518160090160006101000a81548160ff021916908315150217905550505050506001600f60003373ffffffffffffffffffffffffffffffffffffffff1673ffffffffffffffffffffffffffffffffffffffff16815260200190815260200160002060006101000a81548160ff0219169083151502179055506142926003614424565b826040516142a09190615142565b60405180910390203373ffffffffffffffffffffffffffffffffffffffff167f6ba0831d2f62ae5cbf7214bcc1d79c5da1d705f12811efda0beaa840006f874e60405160405180910390a3505050565b6142f8614466565b73ffffffffffffffffffffffffffffffffffffffff166143166139e0565b73ffffffffffffffffffffffffffffffffffffffff161461436c576040517f08c379a0000000000000000000000000000000000000000000000000000000008152600401614363906153a3565b60405180910390fd5b600073ffffffffffffffffffffffffffffffffffffffff168173ffffffffffffffffffffffffffffffffffffffff1614156143dc576040517f08c379a00000000000000000000000000000000000000000000000000000000081526004016143d390615283565b60405180910390fd5b6143e581614484565b50565b600860009054906101000a900473ffffffffffffffffffffffffffffffffffffffff1681565b6000818361441c9190615675565b905092915050565b6001816000016000828254019250508190555050565b60008183614448919061561f565b905092915050565b6000818361445e9190615700565b905092915050565b600033905090565b6000818361447c91906156a6565b905092915050565b600060018054906101000a900473ffffffffffffffffffffffffffffffffffffffff169050816001806101000a81548173ffffffffffffffffffffffffffffffffffffffff021916908373ffffffffffffffffffffffffffffffffffffffff1602179055508173ffffffffffffffffffffffffffffffffffffffff168173ffffffffffffffffffffffffffffffffffffffff167f8be0079c531659141344cd1fd0a4f28419497f9722a3daafe3b4186f6b6457e060405160405180910390a35050565b600081600001549050919050565b82805461456190615818565b90600052602060002090601f01602090048101928261458357600085556145ca565b82601f1061459c57805160ff19168380011785556145ca565b828001600101855582156145ca579182015b828111156145c95782518255916020019190600101906145ae565b5b5090506145d791906145db565b5090565b5b808211156145f45760008160009055506001016145dc565b5090565b600061460b614606846155a2565b615571565b90508281526020810184848401111561462357600080fd5b61462e8482856157d6565b509392505050565b60008135905061464581615917565b92915050565b60008151905061465a8161592e565b92915050565b600082601f83011261467157600080fd5b81356146818482602086016145f8565b91505092915050565b60008135905061469981615945565b92915050565b6000602082840312156146b157600080fd5b60006146bf84828501614636565b91505092915050565b600080604083850312156146db57600080fd5b60006146e985828601614636565b92505060206146fa85828601614636565b9150509250929050565b60008060008060008060c0878903121561471d57600080fd5b600061472b89828a01614636565b965050602087013567ffffffffffffffff81111561474857600080fd5b61475489828a01614660565b955050604061476589828a0161468a565b945050606061477689828a0161468a565b935050608061478789828a0161468a565b92505060a061479889828a0161468a565b9150509295509295509295565b600080604083850312156147b857600080fd5b60006147c685828601614636565b92505060206147d78582860161468a565b9150509250929050565b6000602082840312156147f357600080fd5b60006148018482850161464b565b91505092915050565b60006020828403121561481c57600080fd5b600082013567ffffffffffffffff81111561483657600080fd5b61484284828501614660565b91505092915050565b60006020828403121561485d57600080fd5b600061486b8482850161468a565b91505092915050565b61487d81615746565b82525050565b61488c81615734565b82525050565b61489b81615734565b82525050565b6148aa81615758565b82525050565b6148b981615758565b82525050565b6148c88161578e565b82525050565b6148d7816157b2565b82525050565b60006148e8826155e7565b6148f281856155f2565b93506149028185602086016157e5565b61490b81615906565b840191505092915050565b6000614921826155e7565b61492b8185615603565b935061493b8185602086016157e5565b61494481615906565b840191505092915050565b600061495a826155e7565b6149648185615614565b93506149748185602086016157e5565b80840191505092915050565b6000815461498d81615818565b6149978186615603565b945060018216600081146149b257600181146149c4576149f7565b60ff19831686526020860193506149f7565b6149cd856155d2565b60005b838110156149ef578154818901526001820191506020810190506149d0565b808801955050505b50505092915050565b6000614a0d601883615603565b91507f63616c6c6572206973206e6f74207265676973746572656400000000000000006000830152602082019050919050565b6000614a4d602683615603565b91507f4f776e61626c653a206e6577206f776e657220697320746865207a65726f206160008301527f64647265737300000000000000000000000000000000000000000000000000006020830152604082019050919050565b6000614ab3601d83615603565b91507f43616c6c6572206164647265737320616c7265616479206578697374730000006000830152602082019050919050565b6000614af3601083615603565b91507f5061757361626c653a20706175736564000000000000000000000000000000006000830152602082019050919050565b6000614b33602783615603565b91507f596f752068617665206e6f2066756e647320617661696c61626c6520746f207760008301527f69746864726177000000000000000000000000000000000000000000000000006020830152604082019050919050565b6000614b99604e83615603565b91507f596f752068617665206578656365656465642074686520617070726f7665642060008301527f616d6f756e7420666f72207468697320706c616e2c20706c65617365206d616b60208301527f6520616e6f7468657220706c616e0000000000000000000000000000000000006040830152606082019050919050565b6000614c25602283615603565b91507f43616c6c657220616c7265616479206861732061206c6f636b2054696d65205360008301527f65740000000000000000000000000000000000000000000000000000000000006020830152604082019050919050565b6000614c8b601583615603565b91507f43616c6c6572206e6f74207265676973746572656400000000000000000000006000830152602082019050919050565b6000614ccb601b83615603565b91507f43616c6c65722068617320746f206265205265676973746572656400000000006000830152602082019050919050565b6000614d0b601783615603565b91507f776974686472617720776173207375636365737366756c0000000000000000006000830152602082019050919050565b6000614d4b602083615603565b91507f4f776e61626c653a2063616c6c6572206973206e6f7420746865206f776e65726000830152602082019050919050565b6000614d8b601283615603565b91507f416d6f756e742063616e6e6f74206265203000000000000000000000000000006000830152602082019050919050565b6000614dcb602083615603565b91507f617070726f766520616e20616d6f756e742067726561746572207468616e20306000830152602082019050919050565b6000614e0b601c83615603565b91507f596f752063616e6e6f74207769746864726177203020616d6f756e74000000006000830152602082019050919050565b6000614e4b602f83615603565b91507f556e61626c6520746f207769746864726177206265666f726520796f7572206c60008301527f6f636b74696d65206578706972657300000000000000000000000000000000006020830152604082019050919050565b6000614eb1601283615603565b91507f4465706f73697420686173206661696c656400000000000000000000000000006000830152602082019050919050565b6000614ef1601883615603565b91507f43616e6e6f74207769746864726177203020616d6f756e7400000000000000006000830152602082019050919050565b6000614f31602f83615603565b91507f53657420616e20616d6f756e742067726561746572207468616e20746865207260008301527f6563757272696e6720616d6f756e7400000000000000000000000000000000006020830152604082019050919050565b6000614f97601f83615603565b91507f5265656e7472616e637947756172643a207265656e7472616e742063616c6c006000830152602082019050919050565b6000614fd7601d83615603565b91507f43616c6c657220686173206e6f7420737570706c6965642066756e64730000006000830152602082019050919050565b6000615017601283615603565b91507f4164647265737320697320696e76616c696400000000000000000000000000006000830152602082019050919050565b6000610140830160008301516150636000860182614883565b5060208301516150766020860182615124565b5060408301516150896040860182615124565b50606083015161509c6060860182615124565b5060808301516150af6080860182615124565b5060a08301516150c260a0860182615124565b5060c08301516150d560c0860182615124565b5060e083015184820360e08601526150ed82826148dd565b915050610100830151615104610100860182615124565b506101208301516151196101208601826148a1565b508091505092915050565b61512d81615784565b82525050565b61513c81615784565b82525050565b600061514e828461494f565b915081905092915050565b600060208201905061516e6000830184614892565b92915050565b60006060820190506151896000830186614892565b6151966020830185614892565b6151a36040830184615133565b949350505050565b60006060820190506151c06000830186614892565b81810360208301526151d28185614980565b90506151e16040830184615133565b949350505050565b60006040820190506151fe6000830185614892565b61520b6020830184615133565b9392505050565b600060208201905061522760008301846148b0565b92915050565b600060208201905061524260008301846148bf565b92915050565b600060208201905061525d60008301846148ce565b92915050565b6000602082019050818103600083015261527c81614a00565b9050919050565b6000602082019050818103600083015261529c81614a40565b9050919050565b600060208201905081810360008301526152bc81614aa6565b9050919050565b600060208201905081810360008301526152dc81614ae6565b9050919050565b600060208201905081810360008301526152fc81614b26565b9050919050565b6000602082019050818103600083015261531c81614b8c565b9050919050565b6000602082019050818103600083015261533c81614c18565b9050919050565b6000602082019050818103600083015261535c81614c7e565b9050919050565b6000602082019050818103600083015261537c81614cbe565b9050919050565b6000602082019050818103600083015261539c81614cfe565b9050919050565b600060208201905081810360008301526153bc81614d3e565b9050919050565b600060208201905081810360008301526153dc81614d7e565b9050919050565b600060208201905081810360008301526153fc81614dbe565b9050919050565b6000602082019050818103600083015261541c81614dfe565b9050919050565b6000602082019050818103600083015261543c81614e3e565b9050919050565b6000602082019050818103600083015261545c81614ea4565b9050919050565b6000602082019050818103600083015261547c81614ee4565b9050919050565b6000602082019050818103600083015261549c81614f24565b9050919050565b600060208201905081810360008301526154bc81614f8a565b9050919050565b600060208201905081810360008301526154dc81614fca565b9050919050565b600060208201905081810360008301526154fc8161500a565b9050919050565b60006020820190506155186000830184615133565b92915050565b60006080820190506155336000830187615133565b6155406020830186614874565b81810360408301526155528185614916565b90508181036060830152615566818461504a565b905095945050505050565b6000604051905081810181811067ffffffffffffffff82111715615598576155976158d7565b5b8060405250919050565b600067ffffffffffffffff8211156155bd576155bc6158d7565b5b601f19601f8301169050602081019050919050565b60008190508160005260206000209050919050565b600081519050919050565b600082825260208201905092915050565b600082825260208201905092915050565b600081905092915050565b600061562a82615784565b915061563583615784565b9250827fffffffffffffffffffffffffffffffffffffffffffffffffffffffffffffffff0382111561566a5761566961584a565b5b828201905092915050565b600061568082615784565b915061568b83615784565b92508261569b5761569a615879565b5b828204905092915050565b60006156b182615784565b91506156bc83615784565b9250817fffffffffffffffffffffffffffffffffffffffffffffffffffffffffffffffff04831182151516156156f5576156f461584a565b5b828202905092915050565b600061570b82615784565b915061571683615784565b9250828210156157295761572861584a565b5b828203905092915050565b600061573f82615764565b9050919050565b600061575182615764565b9050919050565b60008115159050919050565b600073ffffffffffffffffffffffffffffffffffffffff82169050919050565b6000819050919050565b6000615799826157a0565b9050919050565b60006157ab82615764565b9050919050565b60006157bd826157c4565b9050919050565b60006157cf82615764565b9050919050565b82818337600083830152505050565b60005b838110156158035780820151818401526020810190506157e8565b83811115615812576000848401525b50505050565b6000600282049050600182168061583057607f821691505b60208210811415615844576158436158a8565b5b50919050565b7f4e487b7100000000000000000000000000000000000000000000000000000000600052601160045260246000fd5b7f4e487b7100000000000000000000000000000000000000000000000000000000600052601260045260246000fd5b7f4e487b7100000000000000000000000000000000000000000000000000000000600052602260045260246000fd5b7f4e487b7100000000000000000000000000000000000000000000000000000000600052604160045260246000fd5b6000601f19601f8301169050919050565b61592081615734565b811461592b57600080fd5b50565b61593781615758565b811461594257600080fd5b50565b61594e81615784565b811461595957600080fd5b5056fea2646970667358221220ec44e4b4c9cd38215f8b1d2b81045fb2734d733ca0f6fd96e4482f9f09db560f64736f6c63430008000033",
  "immutableReferences": {},
  "source": "//SPDX-License-Identifier: Unlicense\r\npragma solidity ^0.8.0;\r\n\r\n\r\nimport \"@openzeppelin/contracts/utils/math/SafeMath.sol\";\r\nimport '@openzeppelin/contracts/token/ERC20/IERC20.sol';\r\nimport \"@openzeppelin/contracts/security/Pausable.sol\";\r\nimport \"@openzeppelin/contracts/security/ReentrancyGuard.sol\";\r\nimport \"@openzeppelin/contracts/access/Ownable.sol\";\r\nimport \"@openzeppelin/contracts/utils/Counters.sol\";\r\nimport \"./DInterface.sol\";\r\n\r\n\r\n\r\n\r\ncontract BeimaAva is ReentrancyGuard, Pausable, Ownable{\r\n    using SafeMath for uint;\r\n    using Counters for Counters.Counter;\r\n\r\n    // variables\r\n    DInterface public D;\r\n    Counters.Counter private id;\r\n    uint balance;\r\n\r\n    uint accXendTokens;\r\n    uint256 ccInterest;\r\n    IERC20 public busd;\r\n    address public admin;\r\n\r\n    uint public lastTimeStamp;\r\n    uint public upKeepInterval;\r\n\r\n\r\n\r\n    \r\n\r\n\r\n\r\n    struct Client {\r\n        address underlyingAsset;\r\n        uint256 depositedAmount;\r\n        uint256 amountToSpend;\r\n        uint256 approvedAmountToSpend;\r\n        uint256 startTime;\r\n        uint256 timeDurationOfdeposit;\r\n        uint256 lockTime;\r\n        string ipfsHashOfUserPensionDetails;\r\n        uint256 userLastRewardBlock;\r\n        bool hasPlan;\r\n    }\r\n\r\n\r\n    // A user Object\r\n    struct User {\r\n        uint256 id;\r\n        address payable userAddress;\r\n        string  userDetails;\r\n        Client client;\r\n\r\n    }\r\n\r\n\r\n\r\n    \r\n\r\n    \r\n\r\n\r\n    event Register(address indexed applicant, string indexed applicantDetails);\r\n    event Withdraw(address from, address to, uint amount);\r\n    event Deposit(address indexed sender, address receiver, uint indexed amountSpent);\r\n    event Upkeep(address sender, bool upkeep);\r\n    event Plan(address user, string planDetails, uint lockTime);\r\n    event Update(uint256 timeDuration);\r\n    event Transfer(address indexed sender, uint amount, address indexed receiver);\r\n    event Supply(address sender, uint amount);\r\n    event Redeem(string);\r\n\r\n    mapping(address => User) public pensionServiceApplicant;\r\n    address constant ETHER = address(0); // Stores ether in the tokens mapping\r\n\tmapping(address => mapping(address => uint256)) public assets;\r\n    mapping(address => uint) public unsuppliedAmount;\r\n    mapping(address => uint) public stakedBalance;\r\n\r\n    // keep track of registered users\r\n    mapping(address => bool) public isRegistered;\r\n    mapping(address => bool) public hasRedeemed;\r\n\r\n    User[] public users;\r\n\r\n\r\n    constructor(address _d, uint256 _upKeepInterval)  {\r\n        // xend = IERC20(_xend);\r\n        D = DInterface(_d);\r\n        ccInterest = uint256(3 ether).div(10); // .3% \r\n        lastTimeStamp = block.timestamp;\r\n        upKeepInterval = _upKeepInterval;\r\n        admin = msg.sender;\r\n\r\n        id.increment();\r\n        \r\n    }\r\n\r\n\r\n    receive() external payable {\r\n        balance = msg.value;\r\n    }\r\n\r\n\r\n\r\n    function register(\r\n        string memory _userDetails\r\n        ) \r\n        public  {\r\n        require(!isRegistered[msg.sender], \"Caller address already exists\");\r\n\r\n        Client memory client = Client({\r\n            underlyingAsset: address(0),\r\n            depositedAmount: 0,\r\n            amountToSpend: 0,\r\n            approvedAmountToSpend: 0,\r\n            startTime: block.timestamp,\r\n            timeDurationOfdeposit: 0,\r\n            lockTime: 0,\r\n            ipfsHashOfUserPensionDetails: \"\",\r\n            userLastRewardBlock: block.number,\r\n            hasPlan: false\r\n        });\r\n\r\n        User memory user = User({\r\n            id: id.current(),\r\n            userAddress: payable(msg.sender),\r\n            userDetails: _userDetails,\r\n            client: client\r\n        });\r\n\r\n       \r\n\r\n        pensionServiceApplicant[msg.sender] = user;\r\n        users.push(user);\r\n        isRegistered[msg.sender] = true;\r\n\r\n        id.increment();\r\n\r\n        emit Register(msg.sender, _userDetails);\r\n    }\r\n\r\n\r\n    function depositToken (address _asset, uint _amount)public {\r\n        User memory user = pensionServiceApplicant[msg.sender];\r\n        require(user.client.approvedAmountToSpend >= user.client.amountToSpend, \"You have execeeded the approved amount for this plan, please make another plan\");\r\n        require(isRegistered[msg.sender], \"Caller not registered\");\r\n        // require(user.client.hasPlan, \"Caller has no plan\");\r\n\t\trequire(_asset != ETHER, \"Address is invalid\"); \r\n\t\trequire(IERC20(_asset).transferFrom(msg.sender, address(this), _amount), \"Deposit has failed\");\r\n\t\tassets[_asset][msg.sender] = assets[_asset][msg.sender].add(_amount);\r\n        unsuppliedAmount[msg.sender] = unsuppliedAmount[msg.sender].add(_amount);\r\n        user.client.approvedAmountToSpend = user.client.approvedAmountToSpend.sub(_amount);\r\n        ccInterest = ccInterest.add(1);\r\n\t\temit Deposit (msg.sender, address(this), assets[_asset][msg.sender]);\r\n\t}\r\n\r\n\r\n\r\n    function withdrawToken(address _asset) public nonReentrant() whenNotPaused() {\r\n        // require(hasRedeemed[msg.sender], \"Funds need to be redeemed before withdraw\");\r\n\t\trequire(assets[_asset][msg.sender] > 0, \"You have no funds available to withdraw\");\r\n\t\trequire(_asset != ETHER);\r\n        User storage user = pensionServiceApplicant[msg.sender];\r\n        require(block.timestamp > user.client.lockTime, \"Unable to withdraw before your locktime expires\");\r\n        // uint interestAccrued = \r\n        // uint amountToSend = assets[_asset][msg.sender];\r\n        if(unsuppliedAmount[msg.sender] > 0 ) {\r\n            require(IERC20(_asset).transfer(msg.sender, unsuppliedAmount[msg.sender]));\r\n            uint amountToSend = assets[_asset][msg.sender].sub(unsuppliedAmount[msg.sender]);\r\n            unsuppliedAmount[msg.sender] = unsuppliedAmount[msg.sender].sub(unsuppliedAmount[msg.sender]);   \r\n\t\t    assets[_asset][msg.sender] = assets[_asset][msg.sender].sub(assets[_asset][msg.sender]);\r\n            require(IERC20(_asset).transfer(msg.sender, amountToSend));\r\n            user.client.hasPlan = false;\r\n            user.client.lockTime = 0;\r\n            emit Withdraw(address(this), msg.sender, amountToSend);\r\n        } else {\r\n            require(IERC20(_asset).transfer(msg.sender, assets[_asset][msg.sender]));\r\n            user.client.hasPlan = false; \r\n            user.client.lockTime = 0;\r\n            emit Withdraw(address(this), msg.sender, assets[_asset][msg.sender]);\r\n        }\r\n\r\n\t}\r\n\r\n\r\n    function forcedWithdraw(address _asset) public {\r\n        // require(hasRedeemed[msg.sender], \"Funds need to be redeemed before withdraw\");\r\n        require(assets[_asset][msg.sender] >= 0, \"You cannot withdraw 0 amount\");\r\n\t\trequire(_asset != ETHER);\r\n        User storage user = pensionServiceApplicant[msg.sender];\r\n        \t\t\r\n        uint penalty = assets[_asset][msg.sender].div(100).mul(20);\r\n        assets[_asset][address(this)] = assets[_asset][address(this)].add(penalty);\r\n        uint amountToSend;\r\n        if(unsuppliedAmount[msg.sender] > 0 ) {\r\n            amountToSend  = assets[_asset][msg.sender].sub(penalty).add(unsuppliedAmount[msg.sender]);\r\n            unsuppliedAmount[msg.sender] = unsuppliedAmount[msg.sender].sub(unsuppliedAmount[msg.sender]);\r\n            assets[_asset][msg.sender] = assets[_asset][msg.sender].sub(assets[_asset][msg.sender]);\r\n            require(IERC20(_asset).transfer(msg.sender, amountToSend));\r\n            user.client.hasPlan = false;\r\n            user.client.lockTime = 0;\r\n            emit Withdraw(address(this), msg.sender, amountToSend);\r\n        } else {\r\n            amountToSend  = assets[_asset][msg.sender].sub(penalty);\r\n            assets[_asset][msg.sender] = assets[_asset][msg.sender].sub(assets[_asset][msg.sender]);\r\n            require(IERC20(_asset).transfer(msg.sender, amountToSend));\r\n            user.client.hasPlan = false;\r\n            user.client.lockTime = 0;\r\n            emit Withdraw(address(this), msg.sender, amountToSend);\r\n\r\n        }\r\n\r\n    }\r\n\r\n\r\n    function supply() public  {\r\n        require(isRegistered[msg.sender], \"Caller not registered\");\r\n        require(unsuppliedAmount[msg.sender] > 0, \"Amount cannot be 0\");\r\n\t\tUser memory user = pensionServiceApplicant[msg.sender];\r\n\t\tIERC20(user.client.underlyingAsset).approve(address(D), unsuppliedAmount[msg.sender]);\r\n\r\n\t\t// D.deposit(user.client.underlyingAsset, unsuppliedAmount[msg.sender]);\r\n        stakedBalance[msg.sender] = stakedBalance[msg.sender].add(unsuppliedAmount[msg.sender]);\r\n        unsuppliedAmount[msg.sender] = unsuppliedAmount[msg.sender].sub(unsuppliedAmount[msg.sender]);\r\n        emit Supply(msg.sender, stakedBalance[msg.sender]);\r\n\t}\r\n\r\n\r\n    function withdrawFromYieldD(\r\n        address _cErc20Contract\r\n    ) public nonReentrant()  {\r\n        require(isRegistered[msg.sender], \"Caller not registered\");\r\n        require(stakedBalance[msg.sender] > 0, \"Caller has not supplied funds\");\r\n        User memory user = pensionServiceApplicant[msg.sender];\r\n        require(block.timestamp > user.client.lockTime, \"Unable to withdraw before your locktime expires\");\r\n      \r\n        uint256 redeemResult;\r\n\r\n        D.withdraw(stakedBalance[msg.sender]);\r\n        hasRedeemed[msg.sender] = true;\r\n        stakedBalance[msg.sender] = stakedBalance[msg.sender].sub(stakedBalance[msg.sender]);\r\n\r\n        emit Redeem(\"withdraw was successful\");\r\n\r\n    }\r\n\r\n    function setPlan(\r\n        address _underlyingAsset, \r\n        string memory _ipfsHashOfUserPensionDetails, \r\n        uint _approvedAmountToSpend, \r\n        uint _amountToSpend, \r\n        uint _timeDurationOfDeposit, \r\n        uint _lockTime) \r\n        public {\r\n        require(_approvedAmountToSpend > _amountToSpend, \"Set an amount greater than the recurring amount\");\r\n        require(_amountToSpend > 0, \"approve an amount greater than 0\");\r\n        require(isRegistered[msg.sender], \"Caller has to be Registered\");\r\n        User storage user = pensionServiceApplicant[msg.sender];\r\n        require(user.client.lockTime == 0, \"Caller already has a lock Time Set\");\r\n        user.client.underlyingAsset = _underlyingAsset;\r\n        user.client.lockTime = block.timestamp.add(_lockTime);\r\n        user.client.timeDurationOfdeposit = block.timestamp.add(_timeDurationOfDeposit);\r\n        user.client.ipfsHashOfUserPensionDetails = _ipfsHashOfUserPensionDetails;\r\n        user.client.approvedAmountToSpend = _approvedAmountToSpend;\r\n        user.client.amountToSpend = _amountToSpend;\r\n        user.client.hasPlan = true;\r\n\r\n        emit Plan(msg.sender, user.client.ipfsHashOfUserPensionDetails, user.client.lockTime);\r\n    }\r\n\r\n    function getAssetAddress(address ctokenAddress) public view returns(address) {\r\n        User memory user = pensionServiceApplicant[msg.sender];\r\n        return user.client.underlyingAsset;\r\n    }\r\n\r\n    // function getAccruedInterest(address _asset) public view returns(uint) {\r\n    //     User memory user = pensionServiceApplicant[msg.sender];\r\n    //     require(isRegistered[msg.sender], \"Caller not registered\");\r\n    //     CTokenInterface ctoken = CTokenInterface(user.client.underlyingAsset);\r\n    //     uint supplyRatePerBlock = ctoken.supplyRatePerBlock();\r\n    //     uint accInterest = assets[_asset][msg.sender].mul(supplyRatePerBlock);\r\n    //     return accInterest;\r\n    // }\r\n\r\n    function withdrawPenalty(address _asset) public onlyOwner() {\r\n        require(assets[_asset][address(this)] > 0, \"Cannot withdraw 0 amount\");\r\n        require(IERC20(_asset).transfer(admin, assets[_asset][address(this)]));\r\n    }\r\n\r\n    // helper function to be deleted on migration to mainnet\r\n    function updateLockTime() public {\r\n        require(isRegistered[msg.sender], \"caller is not registered\");\r\n        User storage user = pensionServiceApplicant[msg.sender];\r\n        user.client.lockTime = 0;\r\n    }\r\n \r\n\r\n}",
  "sourcePath": "/mnt/c/Users/Chukky/Desktop/Projects/beima_c-chain/beima_c-chain_core/contracts/BeimaAva.sol",
  "compiler": {
    "name": "solc",
    "version": "0.8.0+commit.c7dfd78e.Emscripten.clang"
  },
  "schemaVersion": "3.4.4",
  "updatedAt": "2022-02-19T13:51:25.245Z",
  "networkType": "ethereum",
  "devdoc": {
    "kind": "dev",
    "methods": {
      "owner()": {
        "details": "Returns the address of the current owner."
      },
      "paused()": {
        "details": "Returns true if the contract is paused, and false otherwise."
      },
      "renounceOwnership()": {
        "details": "Leaves the contract without owner. It will not be possible to call `onlyOwner` functions anymore. Can only be called by the current owner. NOTE: Renouncing ownership will leave the contract without an owner, thereby removing any functionality that is only available to the owner."
      },
      "transferOwnership(address)": {
        "details": "Transfers ownership of the contract to a new account (`newOwner`). Can only be called by the current owner."
      }
    },
    "version": 1
  },
  "userdoc": {
    "kind": "user",
    "methods": {},
    "version": 1
  }
}