{
  "contractName": "BeimaAva",
  "abi": [
    {
      "inputs": [
        {
          "internalType": "address",
          "name": "_yakVault",
          "type": "address"
        },
        {
          "internalType": "uint256",
          "name": "_upKeepInterval",
          "type": "uint256"
        }
      ],
      "stateMutability": "nonpayable",
      "type": "constructor"
    },
    {
      "anonymous": false,
      "inputs": [
        {
          "indexed": true,
          "internalType": "address",
          "name": "sender",
          "type": "address"
        },
        {
          "indexed": false,
          "internalType": "address",
          "name": "receiver",
          "type": "address"
        },
        {
          "indexed": true,
          "internalType": "uint256",
          "name": "amountSpent",
          "type": "uint256"
        }
      ],
      "name": "Deposit",
      "type": "event"
    },
    {
      "anonymous": false,
      "inputs": [
        {
          "indexed": true,
          "internalType": "address",
          "name": "previousOwner",
          "type": "address"
        },
        {
          "indexed": true,
          "internalType": "address",
          "name": "newOwner",
          "type": "address"
        }
      ],
      "name": "OwnershipTransferred",
      "type": "event"
    },
    {
      "anonymous": false,
      "inputs": [
        {
          "indexed": false,
          "internalType": "address",
          "name": "account",
          "type": "address"
        }
      ],
      "name": "Paused",
      "type": "event"
    },
    {
      "anonymous": false,
      "inputs": [
        {
          "indexed": false,
          "internalType": "address",
          "name": "user",
          "type": "address"
        },
        {
          "indexed": false,
          "internalType": "string",
          "name": "planDetails",
          "type": "string"
        },
        {
          "indexed": false,
          "internalType": "uint256",
          "name": "lockTime",
          "type": "uint256"
        }
      ],
      "name": "Plan",
      "type": "event"
    },
    {
      "anonymous": false,
      "inputs": [
        {
          "indexed": false,
          "internalType": "string",
          "name": "",
          "type": "string"
        }
      ],
      "name": "Redeem",
      "type": "event"
    },
    {
      "anonymous": false,
      "inputs": [
        {
          "indexed": true,
          "internalType": "address",
          "name": "applicant",
          "type": "address"
        },
        {
          "indexed": true,
          "internalType": "string",
          "name": "applicantDetails",
          "type": "string"
        }
      ],
      "name": "Register",
      "type": "event"
    },
    {
      "anonymous": false,
      "inputs": [
        {
          "indexed": false,
          "internalType": "address",
          "name": "sender",
          "type": "address"
        },
        {
          "indexed": false,
          "internalType": "uint256",
          "name": "amount",
          "type": "uint256"
        }
      ],
      "name": "Supply",
      "type": "event"
    },
    {
      "anonymous": false,
      "inputs": [
        {
          "indexed": true,
          "internalType": "address",
          "name": "sender",
          "type": "address"
        },
        {
          "indexed": false,
          "internalType": "uint256",
          "name": "amount",
          "type": "uint256"
        },
        {
          "indexed": true,
          "internalType": "address",
          "name": "receiver",
          "type": "address"
        }
      ],
      "name": "Transfer",
      "type": "event"
    },
    {
      "anonymous": false,
      "inputs": [
        {
          "indexed": false,
          "internalType": "address",
          "name": "account",
          "type": "address"
        }
      ],
      "name": "Unpaused",
      "type": "event"
    },
    {
      "anonymous": false,
      "inputs": [
        {
          "indexed": false,
          "internalType": "uint256",
          "name": "timeDuration",
          "type": "uint256"
        }
      ],
      "name": "Update",
      "type": "event"
    },
    {
      "anonymous": false,
      "inputs": [
        {
          "indexed": false,
          "internalType": "address",
          "name": "sender",
          "type": "address"
        },
        {
          "indexed": false,
          "internalType": "bool",
          "name": "upkeep",
          "type": "bool"
        }
      ],
      "name": "Upkeep",
      "type": "event"
    },
    {
      "anonymous": false,
      "inputs": [
        {
          "indexed": false,
          "internalType": "address",
          "name": "from",
          "type": "address"
        },
        {
          "indexed": false,
          "internalType": "address",
          "name": "to",
          "type": "address"
        },
        {
          "indexed": false,
          "internalType": "uint256",
          "name": "amount",
          "type": "uint256"
        }
      ],
      "name": "Withdraw",
      "type": "event"
    },
    {
      "inputs": [],
      "name": "admin",
      "outputs": [
        {
          "internalType": "address",
          "name": "",
          "type": "address"
        }
      ],
      "stateMutability": "view",
      "type": "function"
    },
    {
      "inputs": [
        {
          "internalType": "address",
          "name": "",
          "type": "address"
        },
        {
          "internalType": "address",
          "name": "",
          "type": "address"
        }
      ],
      "name": "assets",
      "outputs": [
        {
          "internalType": "uint256",
          "name": "",
          "type": "uint256"
        }
      ],
      "stateMutability": "view",
      "type": "function"
    },
    {
      "inputs": [],
      "name": "busd",
      "outputs": [
        {
          "internalType": "contract IERC20",
          "name": "",
          "type": "address"
        }
      ],
      "stateMutability": "view",
      "type": "function"
    },
    {
      "inputs": [
        {
          "internalType": "address",
          "name": "",
          "type": "address"
        }
      ],
      "name": "hasRedeemed",
      "outputs": [
        {
          "internalType": "bool",
          "name": "",
          "type": "bool"
        }
      ],
      "stateMutability": "view",
      "type": "function"
    },
    {
      "inputs": [
        {
          "internalType": "address",
          "name": "",
          "type": "address"
        }
      ],
      "name": "isRegistered",
      "outputs": [
        {
          "internalType": "bool",
          "name": "",
          "type": "bool"
        }
      ],
      "stateMutability": "view",
      "type": "function"
    },
    {
      "inputs": [],
      "name": "lastTimeStamp",
      "outputs": [
        {
          "internalType": "uint256",
          "name": "",
          "type": "uint256"
        }
      ],
      "stateMutability": "view",
      "type": "function"
    },
    {
      "inputs": [],
      "name": "owner",
      "outputs": [
        {
          "internalType": "address",
          "name": "",
          "type": "address"
        }
      ],
      "stateMutability": "view",
      "type": "function"
    },
    {
      "inputs": [],
      "name": "paused",
      "outputs": [
        {
          "internalType": "bool",
          "name": "",
          "type": "bool"
        }
      ],
      "stateMutability": "view",
      "type": "function"
    },
    {
      "inputs": [
        {
          "internalType": "address",
          "name": "",
          "type": "address"
        }
      ],
      "name": "pensionServiceApplicant",
      "outputs": [
        {
          "internalType": "uint256",
          "name": "id",
          "type": "uint256"
        },
        {
          "internalType": "address payable",
          "name": "userAddress",
          "type": "address"
        },
        {
          "internalType": "string",
          "name": "userDetails",
          "type": "string"
        },
        {
          "components": [
            {
              "internalType": "address",
              "name": "underlyingAsset",
              "type": "address"
            },
            {
              "internalType": "uint256",
              "name": "depositedAmount",
              "type": "uint256"
            },
            {
              "internalType": "uint256",
              "name": "amountToSpend",
              "type": "uint256"
            },
            {
              "internalType": "uint256",
              "name": "approvedAmountToSpend",
              "type": "uint256"
            },
            {
              "internalType": "uint256",
              "name": "startTime",
              "type": "uint256"
            },
            {
              "internalType": "uint256",
              "name": "timeDurationOfdeposit",
              "type": "uint256"
            },
            {
              "internalType": "uint256",
              "name": "lockTime",
              "type": "uint256"
            },
            {
              "internalType": "string",
              "name": "ipfsHashOfUserPensionDetails",
              "type": "string"
            },
            {
              "internalType": "uint256",
              "name": "userLastRewardBlock",
              "type": "uint256"
            },
            {
              "internalType": "bool",
              "name": "hasPlan",
              "type": "bool"
            }
          ],
          "internalType": "struct BeimaAva.Client",
          "name": "client",
          "type": "tuple"
        }
      ],
      "stateMutability": "view",
      "type": "function"
    },
    {
      "inputs": [],
      "name": "renounceOwnership",
      "outputs": [],
      "stateMutability": "nonpayable",
      "type": "function"
    },
    {
      "inputs": [
        {
          "internalType": "address",
          "name": "",
          "type": "address"
        }
      ],
      "name": "stakedBalance",
      "outputs": [
        {
          "internalType": "uint256",
          "name": "",
          "type": "uint256"
        }
      ],
      "stateMutability": "view",
      "type": "function"
    },
    {
      "inputs": [
        {
          "internalType": "address",
          "name": "newOwner",
          "type": "address"
        }
      ],
      "name": "transferOwnership",
      "outputs": [],
      "stateMutability": "nonpayable",
      "type": "function"
    },
    {
      "inputs": [
        {
          "internalType": "address",
          "name": "",
          "type": "address"
        }
      ],
      "name": "unsuppliedAmount",
      "outputs": [
        {
          "internalType": "uint256",
          "name": "",
          "type": "uint256"
        }
      ],
      "stateMutability": "view",
      "type": "function"
    },
    {
      "inputs": [],
      "name": "upKeepInterval",
      "outputs": [
        {
          "internalType": "uint256",
          "name": "",
          "type": "uint256"
        }
      ],
      "stateMutability": "view",
      "type": "function"
    },
    {
      "inputs": [
        {
          "internalType": "uint256",
          "name": "",
          "type": "uint256"
        }
      ],
      "name": "users",
      "outputs": [
        {
          "internalType": "uint256",
          "name": "id",
          "type": "uint256"
        },
        {
          "internalType": "address payable",
          "name": "userAddress",
          "type": "address"
        },
        {
          "internalType": "string",
          "name": "userDetails",
          "type": "string"
        },
        {
          "components": [
            {
              "internalType": "address",
              "name": "underlyingAsset",
              "type": "address"
            },
            {
              "internalType": "uint256",
              "name": "depositedAmount",
              "type": "uint256"
            },
            {
              "internalType": "uint256",
              "name": "amountToSpend",
              "type": "uint256"
            },
            {
              "internalType": "uint256",
              "name": "approvedAmountToSpend",
              "type": "uint256"
            },
            {
              "internalType": "uint256",
              "name": "startTime",
              "type": "uint256"
            },
            {
              "internalType": "uint256",
              "name": "timeDurationOfdeposit",
              "type": "uint256"
            },
            {
              "internalType": "uint256",
              "name": "lockTime",
              "type": "uint256"
            },
            {
              "internalType": "string",
              "name": "ipfsHashOfUserPensionDetails",
              "type": "string"
            },
            {
              "internalType": "uint256",
              "name": "userLastRewardBlock",
              "type": "uint256"
            },
            {
              "internalType": "bool",
              "name": "hasPlan",
              "type": "bool"
            }
          ],
          "internalType": "struct BeimaAva.Client",
          "name": "client",
          "type": "tuple"
        }
      ],
      "stateMutability": "view",
      "type": "function"
    },
    {
      "inputs": [],
      "name": "yakVault",
      "outputs": [
        {
          "internalType": "contract YakVaultInterface",
          "name": "",
          "type": "address"
        }
      ],
      "stateMutability": "view",
      "type": "function"
    },
    {
      "stateMutability": "payable",
      "type": "receive"
    },
    {
      "inputs": [
        {
          "internalType": "string",
          "name": "_userDetails",
          "type": "string"
        }
      ],
      "name": "register",
      "outputs": [],
      "stateMutability": "nonpayable",
      "type": "function"
    },
    {
      "inputs": [
        {
          "internalType": "address",
          "name": "_asset",
          "type": "address"
        },
        {
          "internalType": "uint256",
          "name": "_amount",
          "type": "uint256"
        }
      ],
      "name": "depositToken",
      "outputs": [],
      "stateMutability": "nonpayable",
      "type": "function"
    },
    {
      "inputs": [
        {
          "internalType": "address",
          "name": "_asset",
          "type": "address"
        }
      ],
      "name": "withdrawToken",
      "outputs": [],
      "stateMutability": "nonpayable",
      "type": "function"
    },
    {
      "inputs": [
        {
          "internalType": "address",
          "name": "_asset",
          "type": "address"
        }
      ],
      "name": "forcedWithdraw",
      "outputs": [],
      "stateMutability": "nonpayable",
      "type": "function"
    },
    {
      "inputs": [],
      "name": "supply",
      "outputs": [],
      "stateMutability": "nonpayable",
      "type": "function"
    },
    {
      "inputs": [
        {
          "internalType": "address",
          "name": "_cErc20Contract",
          "type": "address"
        }
      ],
      "name": "withdrawFromYieldYakVault",
      "outputs": [],
      "stateMutability": "nonpayable",
      "type": "function"
    },
    {
      "inputs": [
        {
          "internalType": "address",
          "name": "_underlyingAsset",
          "type": "address"
        },
        {
          "internalType": "string",
          "name": "_ipfsHashOfUserPensionDetails",
          "type": "string"
        },
        {
          "internalType": "uint256",
          "name": "_approvedAmountToSpend",
          "type": "uint256"
        },
        {
          "internalType": "uint256",
          "name": "_amountToSpend",
          "type": "uint256"
        },
        {
          "internalType": "uint256",
          "name": "_timeDurationOfDeposit",
          "type": "uint256"
        },
        {
          "internalType": "uint256",
          "name": "_lockTime",
          "type": "uint256"
        }
      ],
      "name": "setPlan",
      "outputs": [],
      "stateMutability": "nonpayable",
      "type": "function"
    },
    {
      "inputs": [
        {
          "internalType": "address",
          "name": "_asset",
          "type": "address"
        }
      ],
      "name": "withdrawPenalty",
      "outputs": [],
      "stateMutability": "nonpayable",
      "type": "function"
    },
    {
      "inputs": [],
      "name": "updateLockTime",
      "outputs": [],
      "stateMutability": "nonpayable",
      "type": "function"
    }
  ],
  "bytecode": "0x60806040523480156200001157600080fd5b506040516200580b3803806200580b833981810160405281019062000037919062000279565b60016000819055506000600160006101000a81548160ff0219169083151502179055506200007a6200006e6200015260201b60201c565b6200015a60201b60201c565b81600260006101000a81548173ffffffffffffffffffffffffffffffffffffffff021916908373ffffffffffffffffffffffffffffffffffffffff160217905550620000de600a6729a2241af62c00006200021d60201b620040501790919060201c565b6006819055504260098190555080600a8190555033600860006101000a81548173ffffffffffffffffffffffffffffffffffffffff021916908373ffffffffffffffffffffffffffffffffffffffff1602179055506200014a60036200023560201b620040661760201c565b505062000393565b600033905090565b600060018054906101000a900473ffffffffffffffffffffffffffffffffffffffff169050816001806101000a81548173ffffffffffffffffffffffffffffffffffffffff021916908373ffffffffffffffffffffffffffffffffffffffff1602179055508173ffffffffffffffffffffffffffffffffffffffff168173ffffffffffffffffffffffffffffffffffffffff167f8be0079c531659141344cd1fd0a4f28419497f9722a3daafe3b4186f6b6457e060405160405180910390a35050565b600081836200022d9190620002ba565b905092915050565b6001816000016000828254019250508190555050565b6000815190506200025c816200035f565b92915050565b600081519050620002738162000379565b92915050565b600080604083850312156200028d57600080fd5b60006200029d858286016200024b565b9250506020620002b08582860162000262565b9150509250929050565b6000620002c78262000326565b9150620002d48362000326565b925082620002e757620002e662000330565b5b828204905092915050565b6000620002ff8262000306565b9050919050565b600073ffffffffffffffffffffffffffffffffffffffff82169050919050565b6000819050919050565b7f4e487b7100000000000000000000000000000000000000000000000000000000600052601260045260246000fd5b6200036a81620002f2565b81146200037657600080fd5b50565b620003848162000326565b81146200039057600080fd5b50565b61546880620003a36000396000f3fe60806040526004361061016a5760003560e01c80635c975abb116100d1578063c3c5a5471161008a578063f07f0f3411610064578063f07f0f3414610542578063f2c298be1461056b578063f2fde38b14610594578063f851a440146105bd57610178565b8063c3c5a5471461049f578063db78b67c146104dc578063de15f0da1461051957610178565b80635c975abb146103b557806360217267146103e0578063715018a61461041d57806389476069146104345780638da5cb5b1461045d578063a07d6fe81461048857610178565b8063338b5dea11610123578063338b5dea1461028d578063365b98b2146102b65780633ca5b234146102f65780633f3b3b27146103215780634537f7d11461034c5780635bc9d2bf1461037557610178565b8063047fc9aa1461017d5780630532a4d6146101945780631a15687b146101bf5780632108234d146101ea5780632b6a7221146102275780632ce8abed1461025057610178565b366101785734600481905550005b600080fd5b34801561018957600080fd5b506101926105e8565b005b3480156101a057600080fd5b506101a9610d84565b6040516101b69190614d7e565b60405180910390f35b3480156101cb57600080fd5b506101d4610daa565b6040516101e19190614fd9565b60405180910390f35b3480156101f657600080fd5b50610211600480360381019061020c919061430a565b610db0565b60405161021e9190614fd9565b60405180910390f35b34801561023357600080fd5b5061024e600480360381019061024991906142e1565b610dd5565b005b34801561025c57600080fd5b50610277600480360381019061027291906142e1565b611047565b6040516102849190614fd9565b60405180910390f35b34801561029957600080fd5b506102b460048036038101906102af91906143e7565b61105f565b005b3480156102c257600080fd5b506102dd60048036038101906102d8919061448d565b611645565b6040516102ed9493929190614ff4565b60405180910390f35b34801561030257600080fd5b5061030b611881565b6040516103189190614d63565b60405180910390f35b34801561032d57600080fd5b506103366118a7565b6040516103439190614fd9565b60405180910390f35b34801561035857600080fd5b50610373600480360381019061036e91906142e1565b6118ad565b005b34801561038157600080fd5b5061039c600480360381019061039791906142e1565b61234e565b6040516103ac9493929190614ff4565b60405180910390f35b3480156103c157600080fd5b506103ca61257a565b6040516103d79190614d48565b60405180910390f35b3480156103ec57600080fd5b50610407600480360381019061040291906142e1565b612591565b6040516104149190614fd9565b60405180910390f35b34801561042957600080fd5b506104326125a9565b005b34801561044057600080fd5b5061045b600480360381019061045691906142e1565b612631565b005b34801561046957600080fd5b50610472612fa1565b60405161047f9190614c8f565b60405180910390f35b34801561049457600080fd5b5061049d612fc9565b005b3480156104ab57600080fd5b506104c660048036038101906104c191906142e1565b6130a8565b6040516104d39190614d48565b60405180910390f35b3480156104e857600080fd5b5061050360048036038101906104fe91906142e1565b6130c8565b6040516105109190614d48565b60405180910390f35b34801561052557600080fd5b50610540600480360381019061053b9190614346565b6130e8565b005b34801561054e57600080fd5b50610569600480360381019061056491906142e1565b6133ae565b005b34801561057757600080fd5b50610592600480360381019061058d919061444c565b613a2e565b005b3480156105a057600080fd5b506105bb60048036038101906105b691906142e1565b613f32565b005b3480156105c957600080fd5b506105d261402a565b6040516105df9190614c8f565b60405180910390f35b600f60003373ffffffffffffffffffffffffffffffffffffffff1673ffffffffffffffffffffffffffffffffffffffff16815260200190815260200160002060009054906101000a900460ff16610674576040517f08c379a000000000000000000000000000000000000000000000000000000000815260040161066b90614e59565b60405180910390fd5b6000600d60003373ffffffffffffffffffffffffffffffffffffffff1673ffffffffffffffffffffffffffffffffffffffff16815260200190815260200160002054116106f6576040517f08c379a00000000000000000000000000000000000000000000000000000000081526004016106ed90614ed9565b60405180910390fd5b6000600b60003373ffffffffffffffffffffffffffffffffffffffff1673ffffffffffffffffffffffffffffffffffffffff168152602001908152602001600020604051806080016040529081600082015481526020016001820160009054906101000a900473ffffffffffffffffffffffffffffffffffffffff1673ffffffffffffffffffffffffffffffffffffffff1673ffffffffffffffffffffffffffffffffffffffff1681526020016002820180546107b2906152ee565b80601f01602080910402602001604051908101604052809291908181526020018280546107de906152ee565b801561082b5780601f106108005761010080835404028352916020019161082b565b820191906000526020600020905b81548152906001019060200180831161080e57829003601f168201915b5050505050815260200160038201604051806101400160405290816000820160009054906101000a900473ffffffffffffffffffffffffffffffffffffffff1673ffffffffffffffffffffffffffffffffffffffff1673ffffffffffffffffffffffffffffffffffffffff1681526020016001820154815260200160028201548152602001600382015481526020016004820154815260200160058201548152602001600682015481526020016007820180546108e7906152ee565b80601f0160208091040260200160405190810160405280929190818152602001828054610913906152ee565b80156109605780601f1061093557610100808354040283529160200191610960565b820191906000526020600020905b81548152906001019060200180831161094357829003601f168201915b50505050508152602001600882015481526020016009820160009054906101000a900460ff16151515158152505081525050905080606001516000015173ffffffffffffffffffffffffffffffffffffffff1663095ea7b3600260009054906101000a900473ffffffffffffffffffffffffffffffffffffffff16600d60003373ffffffffffffffffffffffffffffffffffffffff1673ffffffffffffffffffffffffffffffffffffffff168152602001908152602001600020546040518363ffffffff1660e01b8152600401610a38929190614d1f565b602060405180830381600087803b158015610a5257600080fd5b505af1158015610a66573d6000803e3d6000fd5b505050506040513d601f19601f82011682018060405250810190610a8a9190614423565b50600260009054906101000a900473ffffffffffffffffffffffffffffffffffffffff1673ffffffffffffffffffffffffffffffffffffffff166347e7ef24826060015160000151600d60003373ffffffffffffffffffffffffffffffffffffffff1673ffffffffffffffffffffffffffffffffffffffff168152602001908152602001600020546040518363ffffffff1660e01b8152600401610b2f929190614d1f565b600060405180830381600087803b158015610b4957600080fd5b505af1158015610b5d573d6000803e3d6000fd5b50505050610bf2600d60003373ffffffffffffffffffffffffffffffffffffffff1673ffffffffffffffffffffffffffffffffffffffff16815260200190815260200160002054600e60003373ffffffffffffffffffffffffffffffffffffffff1673ffffffffffffffffffffffffffffffffffffffff1681526020019081526020016000205461407c90919063ffffffff16565b600e60003373ffffffffffffffffffffffffffffffffffffffff1673ffffffffffffffffffffffffffffffffffffffff16815260200190815260200160002081905550610cc6600d60003373ffffffffffffffffffffffffffffffffffffffff1673ffffffffffffffffffffffffffffffffffffffff16815260200190815260200160002054600d60003373ffffffffffffffffffffffffffffffffffffffff1673ffffffffffffffffffffffffffffffffffffffff1681526020019081526020016000205461409290919063ffffffff16565b600d60003373ffffffffffffffffffffffffffffffffffffffff1673ffffffffffffffffffffffffffffffffffffffff168152602001908152602001600020819055507fadacf827efe383160192c092d8658471945c074229a9746679b5e2b74adff19133600e60003373ffffffffffffffffffffffffffffffffffffffff1673ffffffffffffffffffffffffffffffffffffffff16815260200190815260200160002054604051610d79929190614d1f565b60405180910390a150565b600260009054906101000a900473ffffffffffffffffffffffffffffffffffffffff1681565b600a5481565b600c602052816000526040600020602052806000526040600020600091509150505481565b610ddd6140a8565b73ffffffffffffffffffffffffffffffffffffffff16610dfb612fa1565b73ffffffffffffffffffffffffffffffffffffffff1614610e51576040517f08c379a0000000000000000000000000000000000000000000000000000000008152600401610e4890614eb9565b60405180910390fd5b6000600c60008373ffffffffffffffffffffffffffffffffffffffff1673ffffffffffffffffffffffffffffffffffffffff16815260200190815260200160002060003073ffffffffffffffffffffffffffffffffffffffff1673ffffffffffffffffffffffffffffffffffffffff1681526020019081526020016000205411610f10576040517f08c379a0000000000000000000000000000000000000000000000000000000008152600401610f0790614f59565b60405180910390fd5b8073ffffffffffffffffffffffffffffffffffffffff1663a9059cbb600860009054906101000a900473ffffffffffffffffffffffffffffffffffffffff16600c60008573ffffffffffffffffffffffffffffffffffffffff1673ffffffffffffffffffffffffffffffffffffffff16815260200190815260200160002060003073ffffffffffffffffffffffffffffffffffffffff1673ffffffffffffffffffffffffffffffffffffffff168152602001908152602001600020546040518363ffffffff1660e01b8152600401610fe9929190614d1f565b602060405180830381600087803b15801561100357600080fd5b505af1158015611017573d6000803e3d6000fd5b505050506040513d601f19601f8201168201806040525081019061103b9190614423565b61104457600080fd5b50565b600d6020528060005260406000206000915090505481565b6000600b60003373ffffffffffffffffffffffffffffffffffffffff1673ffffffffffffffffffffffffffffffffffffffff168152602001908152602001600020604051806080016040529081600082015481526020016001820160009054906101000a900473ffffffffffffffffffffffffffffffffffffffff1673ffffffffffffffffffffffffffffffffffffffff1673ffffffffffffffffffffffffffffffffffffffff16815260200160028201805461111b906152ee565b80601f0160208091040260200160405190810160405280929190818152602001828054611147906152ee565b80156111945780601f1061116957610100808354040283529160200191611194565b820191906000526020600020905b81548152906001019060200180831161117757829003601f168201915b5050505050815260200160038201604051806101400160405290816000820160009054906101000a900473ffffffffffffffffffffffffffffffffffffffff1673ffffffffffffffffffffffffffffffffffffffff1673ffffffffffffffffffffffffffffffffffffffff168152602001600182015481526020016002820154815260200160038201548152602001600482015481526020016005820154815260200160068201548152602001600782018054611250906152ee565b80601f016020809104026020016040519081016040528092919081815260200182805461127c906152ee565b80156112c95780601f1061129e576101008083540402835291602001916112c9565b820191906000526020600020905b8154815290600101906020018083116112ac57829003601f168201915b50505050508152602001600882015481526020016009820160009054906101000a900460ff1615151515815250508152505090508273ffffffffffffffffffffffffffffffffffffffff166323b872dd3330856040518463ffffffff1660e01b815260040161133a93929190614caa565b602060405180830381600087803b15801561135457600080fd5b505af1158015611368573d6000803e3d6000fd5b505050506040513d601f19601f8201168201806040525081019061138c9190614423565b5061141c82600c60008673ffffffffffffffffffffffffffffffffffffffff1673ffffffffffffffffffffffffffffffffffffffff16815260200190815260200160002060003373ffffffffffffffffffffffffffffffffffffffff1673ffffffffffffffffffffffffffffffffffffffff1681526020019081526020016000205461407c90919063ffffffff16565b600c60008573ffffffffffffffffffffffffffffffffffffffff1673ffffffffffffffffffffffffffffffffffffffff16815260200190815260200160002060003373ffffffffffffffffffffffffffffffffffffffff1673ffffffffffffffffffffffffffffffffffffffff168152602001908152602001600020819055506114ee82600d60003373ffffffffffffffffffffffffffffffffffffffff1673ffffffffffffffffffffffffffffffffffffffff1681526020019081526020016000205461407c90919063ffffffff16565b600d60003373ffffffffffffffffffffffffffffffffffffffff1673ffffffffffffffffffffffffffffffffffffffff1681526020019081526020016000208190555061154c8282606001516060015161409290919063ffffffff16565b8160600151606001818152505061156f600160065461407c90919063ffffffff16565b600681905550600c60008473ffffffffffffffffffffffffffffffffffffffff1673ffffffffffffffffffffffffffffffffffffffff16815260200190815260200160002060003373ffffffffffffffffffffffffffffffffffffffff1673ffffffffffffffffffffffffffffffffffffffff168152602001908152602001600020543373ffffffffffffffffffffffffffffffffffffffff167f5548c837ab068cf56a2c2479df0882a4922fd203edb7517321831d95078c5f62306040516116389190614c8f565b60405180910390a3505050565b6011818154811061165557600080fd5b90600052602060002090600d02016000915090508060000154908060010160009054906101000a900473ffffffffffffffffffffffffffffffffffffffff16908060020180546116a4906152ee565b80601f01602080910402602001604051908101604052809291908181526020018280546116d0906152ee565b801561171d5780601f106116f25761010080835404028352916020019161171d565b820191906000526020600020905b81548152906001019060200180831161170057829003601f168201915b50505050509080600301604051806101400160405290816000820160009054906101000a900473ffffffffffffffffffffffffffffffffffffffff1673ffffffffffffffffffffffffffffffffffffffff1673ffffffffffffffffffffffffffffffffffffffff1681526020016001820154815260200160028201548152602001600382015481526020016004820154815260200160058201548152602001600682015481526020016007820180546117d5906152ee565b80601f0160208091040260200160405190810160405280929190818152602001828054611801906152ee565b801561184e5780601f106118235761010080835404028352916020019161184e565b820191906000526020600020905b81548152906001019060200180831161183157829003601f168201915b50505050508152602001600882015481526020016009820160009054906101000a900460ff161515151581525050905084565b600760009054906101000a900473ffffffffffffffffffffffffffffffffffffffff1681565b60095481565b6000600c60008373ffffffffffffffffffffffffffffffffffffffff1673ffffffffffffffffffffffffffffffffffffffff16815260200190815260200160002060003373ffffffffffffffffffffffffffffffffffffffff1673ffffffffffffffffffffffffffffffffffffffff16815260200190815260200160002054101561196d576040517f08c379a000000000000000000000000000000000000000000000000000000000815260040161196490614f19565b60405180910390fd5b600073ffffffffffffffffffffffffffffffffffffffff168173ffffffffffffffffffffffffffffffffffffffff1614156119a757600080fd5b6000600b60003373ffffffffffffffffffffffffffffffffffffffff1673ffffffffffffffffffffffffffffffffffffffff16815260200190815260200160002090506000611a8f6014611a816064600c60008873ffffffffffffffffffffffffffffffffffffffff1673ffffffffffffffffffffffffffffffffffffffff16815260200190815260200160002060003373ffffffffffffffffffffffffffffffffffffffff1673ffffffffffffffffffffffffffffffffffffffff1681526020019081526020016000205461405090919063ffffffff16565b6140b090919063ffffffff16565b9050611b2081600c60008673ffffffffffffffffffffffffffffffffffffffff1673ffffffffffffffffffffffffffffffffffffffff16815260200190815260200160002060003073ffffffffffffffffffffffffffffffffffffffff1673ffffffffffffffffffffffffffffffffffffffff1681526020019081526020016000205461407c90919063ffffffff16565b600c60008573ffffffffffffffffffffffffffffffffffffffff1673ffffffffffffffffffffffffffffffffffffffff16815260200190815260200160002060003073ffffffffffffffffffffffffffffffffffffffff1673ffffffffffffffffffffffffffffffffffffffff16815260200190815260200160002081905550600080600d60003373ffffffffffffffffffffffffffffffffffffffff1673ffffffffffffffffffffffffffffffffffffffff16815260200190815260200160002054111561202d57611cc9600d60003373ffffffffffffffffffffffffffffffffffffffff1673ffffffffffffffffffffffffffffffffffffffff16815260200190815260200160002054611cbb84600c60008973ffffffffffffffffffffffffffffffffffffffff1673ffffffffffffffffffffffffffffffffffffffff16815260200190815260200160002060003373ffffffffffffffffffffffffffffffffffffffff1673ffffffffffffffffffffffffffffffffffffffff1681526020019081526020016000205461409290919063ffffffff16565b61407c90919063ffffffff16565b9050611d5c600d60003373ffffffffffffffffffffffffffffffffffffffff1673ffffffffffffffffffffffffffffffffffffffff16815260200190815260200160002054600d60003373ffffffffffffffffffffffffffffffffffffffff1673ffffffffffffffffffffffffffffffffffffffff1681526020019081526020016000205461409290919063ffffffff16565b600d60003373ffffffffffffffffffffffffffffffffffffffff1673ffffffffffffffffffffffffffffffffffffffff16815260200190815260200160002081905550611eaa600c60008673ffffffffffffffffffffffffffffffffffffffff1673ffffffffffffffffffffffffffffffffffffffff16815260200190815260200160002060003373ffffffffffffffffffffffffffffffffffffffff1673ffffffffffffffffffffffffffffffffffffffff16815260200190815260200160002054600c60008773ffffffffffffffffffffffffffffffffffffffff1673ffffffffffffffffffffffffffffffffffffffff16815260200190815260200160002060003373ffffffffffffffffffffffffffffffffffffffff1673ffffffffffffffffffffffffffffffffffffffff1681526020019081526020016000205461409290919063ffffffff16565b600c60008673ffffffffffffffffffffffffffffffffffffffff1673ffffffffffffffffffffffffffffffffffffffff16815260200190815260200160002060003373ffffffffffffffffffffffffffffffffffffffff1673ffffffffffffffffffffffffffffffffffffffff168152602001908152602001600020819055508373ffffffffffffffffffffffffffffffffffffffff1663a9059cbb33836040518363ffffffff1660e01b8152600401611f65929190614d1f565b602060405180830381600087803b158015611f7f57600080fd5b505af1158015611f93573d6000803e3d6000fd5b505050506040513d601f19601f82011682018060405250810190611fb79190614423565b611fc057600080fd5b60008360030160090160006101000a81548160ff021916908315150217905550600083600301600601819055507f9b1bfa7fa9ee420a16e124f794c35ac9f90472acc99140eb2f6447c714cad8eb30338360405161202093929190614caa565b60405180910390a1612348565b6120bc82600c60008773ffffffffffffffffffffffffffffffffffffffff1673ffffffffffffffffffffffffffffffffffffffff16815260200190815260200160002060003373ffffffffffffffffffffffffffffffffffffffff1673ffffffffffffffffffffffffffffffffffffffff1681526020019081526020016000205461409290919063ffffffff16565b90506121c9600c60008673ffffffffffffffffffffffffffffffffffffffff1673ffffffffffffffffffffffffffffffffffffffff16815260200190815260200160002060003373ffffffffffffffffffffffffffffffffffffffff1673ffffffffffffffffffffffffffffffffffffffff16815260200190815260200160002054600c60008773ffffffffffffffffffffffffffffffffffffffff1673ffffffffffffffffffffffffffffffffffffffff16815260200190815260200160002060003373ffffffffffffffffffffffffffffffffffffffff1673ffffffffffffffffffffffffffffffffffffffff1681526020019081526020016000205461409290919063ffffffff16565b600c60008673ffffffffffffffffffffffffffffffffffffffff1673ffffffffffffffffffffffffffffffffffffffff16815260200190815260200160002060003373ffffffffffffffffffffffffffffffffffffffff1673ffffffffffffffffffffffffffffffffffffffff168152602001908152602001600020819055508373ffffffffffffffffffffffffffffffffffffffff1663a9059cbb33836040518363ffffffff1660e01b8152600401612284929190614d1f565b602060405180830381600087803b15801561229e57600080fd5b505af11580156122b2573d6000803e3d6000fd5b505050506040513d601f19601f820116820180604052508101906122d69190614423565b6122df57600080fd5b60008360030160090160006101000a81548160ff021916908315150217905550600083600301600601819055507f9b1bfa7fa9ee420a16e124f794c35ac9f90472acc99140eb2f6447c714cad8eb30338360405161233f93929190614caa565b60405180910390a15b50505050565b600b6020528060005260406000206000915090508060000154908060010160009054906101000a900473ffffffffffffffffffffffffffffffffffffffff169080600201805461239d906152ee565b80601f01602080910402602001604051908101604052809291908181526020018280546123c9906152ee565b80156124165780601f106123eb57610100808354040283529160200191612416565b820191906000526020600020905b8154815290600101906020018083116123f957829003601f168201915b50505050509080600301604051806101400160405290816000820160009054906101000a900473ffffffffffffffffffffffffffffffffffffffff1673ffffffffffffffffffffffffffffffffffffffff1673ffffffffffffffffffffffffffffffffffffffff1681526020016001820154815260200160028201548152602001600382015481526020016004820154815260200160058201548152602001600682015481526020016007820180546124ce906152ee565b80601f01602080910402602001604051908101604052809291908181526020018280546124fa906152ee565b80156125475780601f1061251c57610100808354040283529160200191612547565b820191906000526020600020905b81548152906001019060200180831161252a57829003601f168201915b50505050508152602001600882015481526020016009820160009054906101000a900460ff161515151581525050905084565b6000600160009054906101000a900460ff16905090565b600e6020528060005260406000206000915090505481565b6125b16140a8565b73ffffffffffffffffffffffffffffffffffffffff166125cf612fa1565b73ffffffffffffffffffffffffffffffffffffffff1614612625576040517f08c379a000000000000000000000000000000000000000000000000000000000815260040161261c90614eb9565b60405180910390fd5b61262f60006140c6565b565b60026000541415612677576040517f08c379a000000000000000000000000000000000000000000000000000000000815260040161266e90614f99565b60405180910390fd5b600260008190555061268761257a565b156126c7576040517f08c379a00000000000000000000000000000000000000000000000000000000081526004016126be90614df9565b60405180910390fd5b6000600c60008373ffffffffffffffffffffffffffffffffffffffff1673ffffffffffffffffffffffffffffffffffffffff16815260200190815260200160002060003373ffffffffffffffffffffffffffffffffffffffff1673ffffffffffffffffffffffffffffffffffffffff1681526020019081526020016000205411612786576040517f08c379a000000000000000000000000000000000000000000000000000000000815260040161277d90614e19565b60405180910390fd5b600073ffffffffffffffffffffffffffffffffffffffff168173ffffffffffffffffffffffffffffffffffffffff1614156127c057600080fd5b6000600b60003373ffffffffffffffffffffffffffffffffffffffff1673ffffffffffffffffffffffffffffffffffffffff16815260200190815260200160002090508060030160060154421161284c576040517f08c379a000000000000000000000000000000000000000000000000000000000815260040161284390614f39565b60405180910390fd5b6000600d60003373ffffffffffffffffffffffffffffffffffffffff1673ffffffffffffffffffffffffffffffffffffffff168152602001908152602001600020541115612d9e578173ffffffffffffffffffffffffffffffffffffffff1663a9059cbb33600d60003373ffffffffffffffffffffffffffffffffffffffff1673ffffffffffffffffffffffffffffffffffffffff168152602001908152602001600020546040518363ffffffff1660e01b815260040161290e929190614d1f565b602060405180830381600087803b15801561292857600080fd5b505af115801561293c573d6000803e3d6000fd5b505050506040513d601f19601f820116820180604052508101906129609190614423565b61296957600080fd5b6000612a39600d60003373ffffffffffffffffffffffffffffffffffffffff1673ffffffffffffffffffffffffffffffffffffffff16815260200190815260200160002054600c60008673ffffffffffffffffffffffffffffffffffffffff1673ffffffffffffffffffffffffffffffffffffffff16815260200190815260200160002060003373ffffffffffffffffffffffffffffffffffffffff1673ffffffffffffffffffffffffffffffffffffffff1681526020019081526020016000205461409290919063ffffffff16565b9050612acc600d60003373ffffffffffffffffffffffffffffffffffffffff1673ffffffffffffffffffffffffffffffffffffffff16815260200190815260200160002054600d60003373ffffffffffffffffffffffffffffffffffffffff1673ffffffffffffffffffffffffffffffffffffffff1681526020019081526020016000205461409290919063ffffffff16565b600d60003373ffffffffffffffffffffffffffffffffffffffff1673ffffffffffffffffffffffffffffffffffffffff16815260200190815260200160002081905550612c1a600c60008573ffffffffffffffffffffffffffffffffffffffff1673ffffffffffffffffffffffffffffffffffffffff16815260200190815260200160002060003373ffffffffffffffffffffffffffffffffffffffff1673ffffffffffffffffffffffffffffffffffffffff16815260200190815260200160002054600c60008673ffffffffffffffffffffffffffffffffffffffff1673ffffffffffffffffffffffffffffffffffffffff16815260200190815260200160002060003373ffffffffffffffffffffffffffffffffffffffff1673ffffffffffffffffffffffffffffffffffffffff1681526020019081526020016000205461409290919063ffffffff16565b600c60008573ffffffffffffffffffffffffffffffffffffffff1673ffffffffffffffffffffffffffffffffffffffff16815260200190815260200160002060003373ffffffffffffffffffffffffffffffffffffffff1673ffffffffffffffffffffffffffffffffffffffff168152602001908152602001600020819055508273ffffffffffffffffffffffffffffffffffffffff1663a9059cbb33836040518363ffffffff1660e01b8152600401612cd5929190614d1f565b602060405180830381600087803b158015612cef57600080fd5b505af1158015612d03573d6000803e3d6000fd5b505050506040513d601f19601f82011682018060405250810190612d279190614423565b612d3057600080fd5b60008260030160090160006101000a81548160ff021916908315150217905550600082600301600601819055507f9b1bfa7fa9ee420a16e124f794c35ac9f90472acc99140eb2f6447c714cad8eb303383604051612d9093929190614caa565b60405180910390a150612f95565b8173ffffffffffffffffffffffffffffffffffffffff1663a9059cbb33600c60008673ffffffffffffffffffffffffffffffffffffffff1673ffffffffffffffffffffffffffffffffffffffff16815260200190815260200160002060003373ffffffffffffffffffffffffffffffffffffffff1673ffffffffffffffffffffffffffffffffffffffff168152602001908152602001600020546040518363ffffffff1660e01b8152600401612e55929190614d1f565b602060405180830381600087803b158015612e6f57600080fd5b505af1158015612e83573d6000803e3d6000fd5b505050506040513d601f19601f82011682018060405250810190612ea79190614423565b612eb057600080fd5b60008160030160090160006101000a81548160ff021916908315150217905550600081600301600601819055507f9b1bfa7fa9ee420a16e124f794c35ac9f90472acc99140eb2f6447c714cad8eb3033600c60008673ffffffffffffffffffffffffffffffffffffffff1673ffffffffffffffffffffffffffffffffffffffff16815260200190815260200160002060003373ffffffffffffffffffffffffffffffffffffffff1673ffffffffffffffffffffffffffffffffffffffff16815260200190815260200160002054604051612f8c93929190614caa565b60405180910390a15b50600160008190555050565b600060018054906101000a900473ffffffffffffffffffffffffffffffffffffffff16905090565b600f60003373ffffffffffffffffffffffffffffffffffffffff1673ffffffffffffffffffffffffffffffffffffffff16815260200190815260200160002060009054906101000a900460ff16613055576040517f08c379a000000000000000000000000000000000000000000000000000000000815260040161304c90614d99565b60405180910390fd5b6000600b60003373ffffffffffffffffffffffffffffffffffffffff1673ffffffffffffffffffffffffffffffffffffffff16815260200190815260200160002090506000816003016006018190555050565b600f6020528060005260406000206000915054906101000a900460ff1681565b60106020528060005260406000206000915054906101000a900460ff1681565b82841161312a576040517f08c379a000000000000000000000000000000000000000000000000000000000815260040161312190614f79565b60405180910390fd5b600083101561316e576040517f08c379a000000000000000000000000000000000000000000000000000000000815260040161316590614ef9565b60405180910390fd5b600f60003373ffffffffffffffffffffffffffffffffffffffff1673ffffffffffffffffffffffffffffffffffffffff16815260200190815260200160002060009054906101000a900460ff166131fa576040517f08c379a00000000000000000000000000000000000000000000000000000000081526004016131f190614e79565b60405180910390fd5b6000600b60003373ffffffffffffffffffffffffffffffffffffffff1673ffffffffffffffffffffffffffffffffffffffff16815260200190815260200160002090506000816003016006015414613287576040517f08c379a000000000000000000000000000000000000000000000000000000000815260040161327e90614e39565b60405180910390fd5b868160030160000160006101000a81548173ffffffffffffffffffffffffffffffffffffffff021916908373ffffffffffffffffffffffffffffffffffffffff1602179055506132e0824261407c90919063ffffffff16565b81600301600601819055506132fe834261407c90919063ffffffff16565b816003016005018190555085816003016007019080519060200190613324929190614197565b5084816003016003018190555083816003016002018190555060018160030160090160006101000a81548160ff0219169083151502179055507f0a342f2e207c3c328a10158ad0b71a9e64a10e319c5d635be24f8c7e418ea6e43382600301600701836003016006015460405161339d93929190614ce1565b60405180910390a150505050505050565b600260005414156133f4576040517f08c379a00000000000000000000000000000000000000000000000000000000081526004016133eb90614f99565b60405180910390fd5b6002600081905550600f60003373ffffffffffffffffffffffffffffffffffffffff1673ffffffffffffffffffffffffffffffffffffffff16815260200190815260200160002060009054906101000a900460ff16613488576040517f08c379a000000000000000000000000000000000000000000000000000000000815260040161347f90614e59565b60405180910390fd5b6000600e60003373ffffffffffffffffffffffffffffffffffffffff1673ffffffffffffffffffffffffffffffffffffffff168152602001908152602001600020541161350a576040517f08c379a000000000000000000000000000000000000000000000000000000000815260040161350190614fb9565b60405180910390fd5b6000600b60003373ffffffffffffffffffffffffffffffffffffffff1673ffffffffffffffffffffffffffffffffffffffff168152602001908152602001600020604051806080016040529081600082015481526020016001820160009054906101000a900473ffffffffffffffffffffffffffffffffffffffff1673ffffffffffffffffffffffffffffffffffffffff1673ffffffffffffffffffffffffffffffffffffffff1681526020016002820180546135c6906152ee565b80601f01602080910402602001604051908101604052809291908181526020018280546135f2906152ee565b801561363f5780601f106136145761010080835404028352916020019161363f565b820191906000526020600020905b81548152906001019060200180831161362257829003601f168201915b5050505050815260200160038201604051806101400160405290816000820160009054906101000a900473ffffffffffffffffffffffffffffffffffffffff1673ffffffffffffffffffffffffffffffffffffffff1673ffffffffffffffffffffffffffffffffffffffff1681526020016001820154815260200160028201548152602001600382015481526020016004820154815260200160058201548152602001600682015481526020016007820180546136fb906152ee565b80601f0160208091040260200160405190810160405280929190818152602001828054613727906152ee565b80156137745780601f1061374957610100808354040283529160200191613774565b820191906000526020600020905b81548152906001019060200180831161375757829003601f168201915b50505050508152602001600882015481526020016009820160009054906101000a900460ff161515151581525050815250509050806060015160c0015142116137f2576040517f08c379a00000000000000000000000000000000000000000000000000000000081526004016137e990614f39565b60405180910390fd5b6000600260009054906101000a900473ffffffffffffffffffffffffffffffffffffffff1673ffffffffffffffffffffffffffffffffffffffff16632e1a7d4d600e60003373ffffffffffffffffffffffffffffffffffffffff1673ffffffffffffffffffffffffffffffffffffffff168152602001908152602001600020546040518263ffffffff1660e01b815260040161388e9190614fd9565b600060405180830381600087803b1580156138a857600080fd5b505af11580156138bc573d6000803e3d6000fd5b505050506001601060003373ffffffffffffffffffffffffffffffffffffffff1673ffffffffffffffffffffffffffffffffffffffff16815260200190815260200160002060006101000a81548160ff0219169083151502179055506139a9600e60003373ffffffffffffffffffffffffffffffffffffffff1673ffffffffffffffffffffffffffffffffffffffff16815260200190815260200160002054600e60003373ffffffffffffffffffffffffffffffffffffffff1673ffffffffffffffffffffffffffffffffffffffff1681526020019081526020016000205461409290919063ffffffff16565b600e60003373ffffffffffffffffffffffffffffffffffffffff1673ffffffffffffffffffffffffffffffffffffffff168152602001908152602001600020819055507ffaaa716cf73cc51702fa1de9713c82c6cd37a48c3abd70d72ef7e2051b60788b604051613a1990614e99565b60405180910390a15050600160008190555050565b600f60003373ffffffffffffffffffffffffffffffffffffffff1673ffffffffffffffffffffffffffffffffffffffff16815260200190815260200160002060009054906101000a900460ff1615613abb576040517f08c379a0000000000000000000000000000000000000000000000000000000008152600401613ab290614dd9565b60405180910390fd5b6000604051806101400160405280600073ffffffffffffffffffffffffffffffffffffffff168152602001600081526020016000815260200160008152602001428152602001600081526020016000815260200160405180602001604052806000815250815260200143815260200160001515815250905060006040518060800160405280613b4a6003614189565b81526020013373ffffffffffffffffffffffffffffffffffffffff16815260200184815260200183815250905080600b60003373ffffffffffffffffffffffffffffffffffffffff1673ffffffffffffffffffffffffffffffffffffffff1681526020019081526020016000206000820151816000015560208201518160010160006101000a81548173ffffffffffffffffffffffffffffffffffffffff021916908373ffffffffffffffffffffffffffffffffffffffff1602179055506040820151816002019080519060200190613c24929190614197565b5060608201518160030160008201518160000160006101000a81548173ffffffffffffffffffffffffffffffffffffffff021916908373ffffffffffffffffffffffffffffffffffffffff1602179055506020820151816001015560408201518160020155606082015181600301556080820151816004015560a0820151816005015560c0820151816006015560e0820151816007019080519060200190613ccd929190614197565b5061010082015181600801556101208201518160090160006101000a81548160ff021916908315150217905550505090505060118190806001815401808255809150506001900390600052602060002090600d02016000909190919091506000820151816000015560208201518160010160006101000a81548173ffffffffffffffffffffffffffffffffffffffff021916908373ffffffffffffffffffffffffffffffffffffffff1602179055506040820151816002019080519060200190613d98929190614197565b5060608201518160030160008201518160000160006101000a81548173ffffffffffffffffffffffffffffffffffffffff021916908373ffffffffffffffffffffffffffffffffffffffff1602179055506020820151816001015560408201518160020155606082015181600301556080820151816004015560a0820151816005015560c0820151816006015560e0820151816007019080519060200190613e41929190614197565b5061010082015181600801556101208201518160090160006101000a81548160ff021916908315150217905550505050506001600f60003373ffffffffffffffffffffffffffffffffffffffff1673ffffffffffffffffffffffffffffffffffffffff16815260200190815260200160002060006101000a81548160ff021916908315150217905550613ed46003614066565b82604051613ee29190614c78565b60405180910390203373ffffffffffffffffffffffffffffffffffffffff167f6ba0831d2f62ae5cbf7214bcc1d79c5da1d705f12811efda0beaa840006f874e60405160405180910390a3505050565b613f3a6140a8565b73ffffffffffffffffffffffffffffffffffffffff16613f58612fa1565b73ffffffffffffffffffffffffffffffffffffffff1614613fae576040517f08c379a0000000000000000000000000000000000000000000000000000000008152600401613fa590614eb9565b60405180910390fd5b600073ffffffffffffffffffffffffffffffffffffffff168173ffffffffffffffffffffffffffffffffffffffff16141561401e576040517f08c379a000000000000000000000000000000000000000000000000000000000815260040161401590614db9565b60405180910390fd5b614027816140c6565b50565b600860009054906101000a900473ffffffffffffffffffffffffffffffffffffffff1681565b6000818361405e919061514b565b905092915050565b6001816000016000828254019250508190555050565b6000818361408a91906150f5565b905092915050565b600081836140a091906151d6565b905092915050565b600033905090565b600081836140be919061517c565b905092915050565b600060018054906101000a900473ffffffffffffffffffffffffffffffffffffffff169050816001806101000a81548173ffffffffffffffffffffffffffffffffffffffff021916908373ffffffffffffffffffffffffffffffffffffffff1602179055508173ffffffffffffffffffffffffffffffffffffffff168173ffffffffffffffffffffffffffffffffffffffff167f8be0079c531659141344cd1fd0a4f28419497f9722a3daafe3b4186f6b6457e060405160405180910390a35050565b600081600001549050919050565b8280546141a3906152ee565b90600052602060002090601f0160209004810192826141c5576000855561420c565b82601f106141de57805160ff191683800117855561420c565b8280016001018555821561420c579182015b8281111561420b5782518255916020019190600101906141f0565b5b509050614219919061421d565b5090565b5b8082111561423657600081600090555060010161421e565b5090565b600061424d61424884615078565b615047565b90508281526020810184848401111561426557600080fd5b6142708482856152ac565b509392505050565b600081359050614287816153ed565b92915050565b60008151905061429c81615404565b92915050565b600082601f8301126142b357600080fd5b81356142c384826020860161423a565b91505092915050565b6000813590506142db8161541b565b92915050565b6000602082840312156142f357600080fd5b600061430184828501614278565b91505092915050565b6000806040838503121561431d57600080fd5b600061432b85828601614278565b925050602061433c85828601614278565b9150509250929050565b60008060008060008060c0878903121561435f57600080fd5b600061436d89828a01614278565b965050602087013567ffffffffffffffff81111561438a57600080fd5b61439689828a016142a2565b95505060406143a789828a016142cc565b94505060606143b889828a016142cc565b93505060806143c989828a016142cc565b92505060a06143da89828a016142cc565b9150509295509295509295565b600080604083850312156143fa57600080fd5b600061440885828601614278565b9250506020614419858286016142cc565b9150509250929050565b60006020828403121561443557600080fd5b60006144438482850161428d565b91505092915050565b60006020828403121561445e57600080fd5b600082013567ffffffffffffffff81111561447857600080fd5b614484848285016142a2565b91505092915050565b60006020828403121561449f57600080fd5b60006144ad848285016142cc565b91505092915050565b6144bf8161521c565b82525050565b6144ce8161520a565b82525050565b6144dd8161520a565b82525050565b6144ec8161522e565b82525050565b6144fb8161522e565b82525050565b61450a81615264565b82525050565b61451981615288565b82525050565b600061452a826150bd565b61453481856150c8565b93506145448185602086016152bb565b61454d816153dc565b840191505092915050565b6000614563826150bd565b61456d81856150d9565b935061457d8185602086016152bb565b614586816153dc565b840191505092915050565b600061459c826150bd565b6145a681856150ea565b93506145b68185602086016152bb565b80840191505092915050565b600081546145cf816152ee565b6145d981866150d9565b945060018216600081146145f4576001811461460657614639565b60ff1983168652602086019350614639565b61460f856150a8565b60005b8381101561463157815481890152600182019150602081019050614612565b808801955050505b50505092915050565b600061464f6018836150d9565b91507f63616c6c6572206973206e6f74207265676973746572656400000000000000006000830152602082019050919050565b600061468f6026836150d9565b91507f4f776e61626c653a206e6577206f776e657220697320746865207a65726f206160008301527f64647265737300000000000000000000000000000000000000000000000000006020830152604082019050919050565b60006146f5601d836150d9565b91507f43616c6c6572206164647265737320616c7265616479206578697374730000006000830152602082019050919050565b60006147356010836150d9565b91507f5061757361626c653a20706175736564000000000000000000000000000000006000830152602082019050919050565b60006147756027836150d9565b91507f596f752068617665206e6f2066756e647320617661696c61626c6520746f207760008301527f69746864726177000000000000000000000000000000000000000000000000006020830152604082019050919050565b60006147db6022836150d9565b91507f43616c6c657220616c7265616479206861732061206c6f636b2054696d65205360008301527f65740000000000000000000000000000000000000000000000000000000000006020830152604082019050919050565b60006148416015836150d9565b91507f43616c6c6572206e6f74207265676973746572656400000000000000000000006000830152602082019050919050565b6000614881601b836150d9565b91507f43616c6c65722068617320746f206265205265676973746572656400000000006000830152602082019050919050565b60006148c16017836150d9565b91507f776974686472617720776173207375636365737366756c0000000000000000006000830152602082019050919050565b60006149016020836150d9565b91507f4f776e61626c653a2063616c6c6572206973206e6f7420746865206f776e65726000830152602082019050919050565b60006149416012836150d9565b91507f416d6f756e742063616e6e6f74206265203000000000000000000000000000006000830152602082019050919050565b60006149816020836150d9565b91507f617070726f766520616e20616d6f756e742067726561746572207468616e20306000830152602082019050919050565b60006149c1601c836150d9565b91507f596f752063616e6e6f74207769746864726177203020616d6f756e74000000006000830152602082019050919050565b6000614a01602f836150d9565b91507f556e61626c6520746f207769746864726177206265666f726520796f7572206c60008301527f6f636b74696d65206578706972657300000000000000000000000000000000006020830152604082019050919050565b6000614a676018836150d9565b91507f43616e6e6f74207769746864726177203020616d6f756e7400000000000000006000830152602082019050919050565b6000614aa7602f836150d9565b91507f53657420616e20616d6f756e742067726561746572207468616e20746865207260008301527f6563757272696e6720616d6f756e7400000000000000000000000000000000006020830152604082019050919050565b6000614b0d601f836150d9565b91507f5265656e7472616e637947756172643a207265656e7472616e742063616c6c006000830152602082019050919050565b6000614b4d601d836150d9565b91507f43616c6c657220686173206e6f7420737570706c6965642066756e64730000006000830152602082019050919050565b600061014083016000830151614b9960008601826144c5565b506020830151614bac6020860182614c5a565b506040830151614bbf6040860182614c5a565b506060830151614bd26060860182614c5a565b506080830151614be56080860182614c5a565b5060a0830151614bf860a0860182614c5a565b5060c0830151614c0b60c0860182614c5a565b5060e083015184820360e0860152614c23828261451f565b915050610100830151614c3a610100860182614c5a565b50610120830151614c4f6101208601826144e3565b508091505092915050565b614c638161525a565b82525050565b614c728161525a565b82525050565b6000614c848284614591565b915081905092915050565b6000602082019050614ca460008301846144d4565b92915050565b6000606082019050614cbf60008301866144d4565b614ccc60208301856144d4565b614cd96040830184614c69565b949350505050565b6000606082019050614cf660008301866144d4565b8181036020830152614d0881856145c2565b9050614d176040830184614c69565b949350505050565b6000604082019050614d3460008301856144d4565b614d416020830184614c69565b9392505050565b6000602082019050614d5d60008301846144f2565b92915050565b6000602082019050614d786000830184614501565b92915050565b6000602082019050614d936000830184614510565b92915050565b60006020820190508181036000830152614db281614642565b9050919050565b60006020820190508181036000830152614dd281614682565b9050919050565b60006020820190508181036000830152614df2816146e8565b9050919050565b60006020820190508181036000830152614e1281614728565b9050919050565b60006020820190508181036000830152614e3281614768565b9050919050565b60006020820190508181036000830152614e52816147ce565b9050919050565b60006020820190508181036000830152614e7281614834565b9050919050565b60006020820190508181036000830152614e9281614874565b9050919050565b60006020820190508181036000830152614eb2816148b4565b9050919050565b60006020820190508181036000830152614ed2816148f4565b9050919050565b60006020820190508181036000830152614ef281614934565b9050919050565b60006020820190508181036000830152614f1281614974565b9050919050565b60006020820190508181036000830152614f32816149b4565b9050919050565b60006020820190508181036000830152614f52816149f4565b9050919050565b60006020820190508181036000830152614f7281614a5a565b9050919050565b60006020820190508181036000830152614f9281614a9a565b9050919050565b60006020820190508181036000830152614fb281614b00565b9050919050565b60006020820190508181036000830152614fd281614b40565b9050919050565b6000602082019050614fee6000830184614c69565b92915050565b60006080820190506150096000830187614c69565b61501660208301866144b6565b81810360408301526150288185614558565b9050818103606083015261503c8184614b80565b905095945050505050565b6000604051905081810181811067ffffffffffffffff8211171561506e5761506d6153ad565b5b8060405250919050565b600067ffffffffffffffff821115615093576150926153ad565b5b601f19601f8301169050602081019050919050565b60008190508160005260206000209050919050565b600081519050919050565b600082825260208201905092915050565b600082825260208201905092915050565b600081905092915050565b60006151008261525a565b915061510b8361525a565b9250827fffffffffffffffffffffffffffffffffffffffffffffffffffffffffffffffff038211156151405761513f615320565b5b828201905092915050565b60006151568261525a565b91506151618361525a565b9250826151715761517061534f565b5b828204905092915050565b60006151878261525a565b91506151928361525a565b9250817fffffffffffffffffffffffffffffffffffffffffffffffffffffffffffffffff04831182151516156151cb576151ca615320565b5b828202905092915050565b60006151e18261525a565b91506151ec8361525a565b9250828210156151ff576151fe615320565b5b828203905092915050565b60006152158261523a565b9050919050565b60006152278261523a565b9050919050565b60008115159050919050565b600073ffffffffffffffffffffffffffffffffffffffff82169050919050565b6000819050919050565b600061526f82615276565b9050919050565b60006152818261523a565b9050919050565b60006152938261529a565b9050919050565b60006152a58261523a565b9050919050565b82818337600083830152505050565b60005b838110156152d95780820151818401526020810190506152be565b838111156152e8576000848401525b50505050565b6000600282049050600182168061530657607f821691505b6020821081141561531a5761531961537e565b5b50919050565b7f4e487b7100000000000000000000000000000000000000000000000000000000600052601160045260246000fd5b7f4e487b7100000000000000000000000000000000000000000000000000000000600052601260045260246000fd5b7f4e487b7100000000000000000000000000000000000000000000000000000000600052602260045260246000fd5b7f4e487b7100000000000000000000000000000000000000000000000000000000600052604160045260246000fd5b6000601f19601f8301169050919050565b6153f68161520a565b811461540157600080fd5b50565b61540d8161522e565b811461541857600080fd5b50565b6154248161525a565b811461542f57600080fd5b5056fea26469706673582212209c76f682457a3cff195e4ce2575912d404657d967442925fbf90c463b26c912a64736f6c63430008000033",
  "immutableReferences": {},
  "source": "//SPDX-License-Identifier: Unlicense\r\npragma solidity ^0.8.0;\r\n\r\n\r\nimport \"@openzeppelin/contracts/utils/math/SafeMath.sol\";\r\nimport '@openzeppelin/contracts/token/ERC20/IERC20.sol';\r\nimport \"@openzeppelin/contracts/security/Pausable.sol\";\r\nimport \"@openzeppelin/contracts/security/ReentrancyGuard.sol\";\r\nimport \"@openzeppelin/contracts/access/Ownable.sol\";\r\nimport \"@openzeppelin/contracts/utils/Counters.sol\";\r\nimport \"./YakVaultInterface.sol\";\r\n\r\n\r\n\r\n\r\ncontract BeimaAva is ReentrancyGuard, Pausable, Ownable{\r\n    using SafeMath for uint;\r\n    using Counters for Counters.Counter;\r\n\r\n    // variables\r\n    YakVaultInterface public yakVault;\r\n    Counters.Counter private id;\r\n    uint balance;\r\n\r\n    uint accXendTokens;\r\n    uint256 ccInterest;\r\n    IERC20 public busd;\r\n    address public admin;\r\n\r\n    uint public lastTimeStamp;\r\n    uint public upKeepInterval;\r\n\r\n\r\n\r\n    \r\n\r\n\r\n\r\n    struct Client {\r\n        address underlyingAsset;\r\n        uint256 depositedAmount;\r\n        uint256 amountToSpend;\r\n        uint256 approvedAmountToSpend;\r\n        uint256 startTime;\r\n        uint256 timeDurationOfdeposit;\r\n        uint256 lockTime;\r\n        string ipfsHashOfUserPensionDetails;\r\n        uint256 userLastRewardBlock;\r\n        bool hasPlan;\r\n    }\r\n\r\n\r\n    // A user Object\r\n    struct User {\r\n        uint256 id;\r\n        address payable userAddress;\r\n        string  userDetails;\r\n        Client client;\r\n\r\n    }\r\n\r\n\r\n\r\n    \r\n\r\n    \r\n\r\n\r\n    event Register(address indexed applicant, string indexed applicantDetails);\r\n    event Withdraw(address from, address to, uint amount);\r\n    event Deposit(address indexed sender, address receiver, uint indexed amountSpent);\r\n    event Upkeep(address sender, bool upkeep);\r\n    event Plan(address user, string planDetails, uint lockTime);\r\n    event Update(uint256 timeDuration);\r\n    event Transfer(address indexed sender, uint amount, address indexed receiver);\r\n    event Supply(address sender, uint amount);\r\n    event Redeem(string);\r\n\r\n    mapping(address => User) public pensionServiceApplicant;\r\n    address constant ETHER = address(0); // Stores ether in the tokens mapping\r\n\tmapping(address => mapping(address => uint256)) public assets;\r\n    mapping(address => uint) public unsuppliedAmount;\r\n    mapping(address => uint) public stakedBalance;\r\n\r\n    // keep track of registered users\r\n    mapping(address => bool) public isRegistered;\r\n    mapping(address => bool) public hasRedeemed;\r\n\r\n    User[] public users;\r\n\r\n\r\n    constructor(address _yakVault, uint256 _upKeepInterval)  {\r\n        // xend = IERC20(_xend);\r\n        yakVault = YakVaultInterface(_yakVault);\r\n        ccInterest = uint256(3 ether).div(10); // .3% \r\n        lastTimeStamp = block.timestamp;\r\n        upKeepInterval = _upKeepInterval;\r\n        admin = msg.sender;\r\n\r\n        id.increment();\r\n        \r\n    }\r\n\r\n\r\n    receive() external payable {\r\n        balance = msg.value;\r\n    }\r\n\r\n\r\n\r\n    function register(\r\n        string memory _userDetails\r\n        ) \r\n        public  {\r\n        require(!isRegistered[msg.sender], \"Caller address already exists\");\r\n\r\n        Client memory client = Client({\r\n            underlyingAsset: address(0),\r\n            depositedAmount: 0,\r\n            amountToSpend: 0,\r\n            approvedAmountToSpend: 0,\r\n            startTime: block.timestamp,\r\n            timeDurationOfdeposit: 0,\r\n            lockTime: 0,\r\n            ipfsHashOfUserPensionDetails: \"\",\r\n            userLastRewardBlock: block.number,\r\n            hasPlan: false\r\n        });\r\n\r\n        User memory user = User({\r\n            id: id.current(),\r\n            userAddress: payable(msg.sender),\r\n            userDetails: _userDetails,\r\n            client: client\r\n        });\r\n\r\n       \r\n\r\n        pensionServiceApplicant[msg.sender] = user;\r\n        users.push(user);\r\n        isRegistered[msg.sender] = true;\r\n\r\n        id.increment();\r\n\r\n        emit Register(msg.sender, _userDetails);\r\n    }\r\n\r\n\r\n    function depositToken (address _asset, uint _amount)public {\r\n        User memory user = pensionServiceApplicant[msg.sender];\r\n        // require(user.client.approvedAmountToSpend >= user.client.amountToSpend, \"You have execeeded the approved amount for this plan, please make another plan\");\r\n        // require(isRegistered[msg.sender], \"Caller not registered\");\r\n        // require(user.client.hasPlan, \"Caller has no plan\");\r\n\t\t// require(_asset != ETHER, \"Address is invalid\");\r\n\t\tIERC20(_asset).transferFrom(msg.sender, address(this), _amount);\r\n\t\tassets[_asset][msg.sender] = assets[_asset][msg.sender].add(_amount);\r\n        unsuppliedAmount[msg.sender] = unsuppliedAmount[msg.sender].add(_amount);\r\n        user.client.approvedAmountToSpend = user.client.approvedAmountToSpend.sub(_amount);\r\n        ccInterest = ccInterest.add(1);\r\n\t\temit Deposit (msg.sender, address(this), assets[_asset][msg.sender]);\r\n\t}\r\n\r\n\r\n\r\n    function withdrawToken(address _asset) public nonReentrant() whenNotPaused() {\r\n        // require(hasRedeemed[msg.sender], \"Funds need to be redeemed before withdraw\");\r\n\t\trequire(assets[_asset][msg.sender] > 0, \"You have no funds available to withdraw\");\r\n\t\trequire(_asset != ETHER);\r\n        User storage user = pensionServiceApplicant[msg.sender];\r\n        require(block.timestamp > user.client.lockTime, \"Unable to withdraw before your locktime expires\");\r\n        // uint interestAccrued = \r\n        // uint amountToSend = assets[_asset][msg.sender];\r\n        if(unsuppliedAmount[msg.sender] > 0 ) {\r\n            require(IERC20(_asset).transfer(msg.sender, unsuppliedAmount[msg.sender]));\r\n            uint amountToSend = assets[_asset][msg.sender].sub(unsuppliedAmount[msg.sender]);\r\n            unsuppliedAmount[msg.sender] = unsuppliedAmount[msg.sender].sub(unsuppliedAmount[msg.sender]);   \r\n\t\t    assets[_asset][msg.sender] = assets[_asset][msg.sender].sub(assets[_asset][msg.sender]);\r\n            require(IERC20(_asset).transfer(msg.sender, amountToSend));\r\n            user.client.hasPlan = false;\r\n            user.client.lockTime = 0;\r\n            emit Withdraw(address(this), msg.sender, amountToSend);\r\n        } else {\r\n            require(IERC20(_asset).transfer(msg.sender, assets[_asset][msg.sender]));\r\n            user.client.hasPlan = false; \r\n            user.client.lockTime = 0;\r\n            emit Withdraw(address(this), msg.sender, assets[_asset][msg.sender]);\r\n        }\r\n\r\n\t}\r\n\r\n\r\n    function forcedWithdraw(address _asset) public {\r\n        // require(hasRedeemed[msg.sender], \"Funds need to be redeemed before withdraw\");\r\n        require(assets[_asset][msg.sender] >= 0, \"You cannot withdraw 0 amount\");\r\n\t\trequire(_asset != ETHER);\r\n        User storage user = pensionServiceApplicant[msg.sender];\r\n        \t\t\r\n        uint penalty = assets[_asset][msg.sender].div(100).mul(20);\r\n        assets[_asset][address(this)] = assets[_asset][address(this)].add(penalty);\r\n        uint amountToSend;\r\n        if(unsuppliedAmount[msg.sender] > 0 ) {\r\n            amountToSend  = assets[_asset][msg.sender].sub(penalty).add(unsuppliedAmount[msg.sender]);\r\n            unsuppliedAmount[msg.sender] = unsuppliedAmount[msg.sender].sub(unsuppliedAmount[msg.sender]);\r\n            assets[_asset][msg.sender] = assets[_asset][msg.sender].sub(assets[_asset][msg.sender]);\r\n            require(IERC20(_asset).transfer(msg.sender, amountToSend));\r\n            user.client.hasPlan = false;\r\n            user.client.lockTime = 0;\r\n            emit Withdraw(address(this), msg.sender, amountToSend);\r\n        } else {\r\n            amountToSend  = assets[_asset][msg.sender].sub(penalty);\r\n            assets[_asset][msg.sender] = assets[_asset][msg.sender].sub(assets[_asset][msg.sender]);\r\n            require(IERC20(_asset).transfer(msg.sender, amountToSend));\r\n            user.client.hasPlan = false;\r\n            user.client.lockTime = 0;\r\n            emit Withdraw(address(this), msg.sender, amountToSend);\r\n\r\n        }\r\n\r\n    }\r\n\r\n\r\n    function supply() public  {\r\n        require(isRegistered[msg.sender], \"Caller not registered\");\r\n        require(unsuppliedAmount[msg.sender] > 0, \"Amount cannot be 0\");\r\n\t\tUser memory user = pensionServiceApplicant[msg.sender];\r\n\t\tIERC20(user.client.underlyingAsset).approve(address(yakVault), unsuppliedAmount[msg.sender]);\r\n\r\n\t\tyakVault.deposit(user.client.underlyingAsset, unsuppliedAmount[msg.sender]);\r\n        stakedBalance[msg.sender] = stakedBalance[msg.sender].add(unsuppliedAmount[msg.sender]);\r\n        unsuppliedAmount[msg.sender] = unsuppliedAmount[msg.sender].sub(unsuppliedAmount[msg.sender]);\r\n        emit Supply(msg.sender, stakedBalance[msg.sender]);\r\n\t}\r\n\r\n\r\n    function withdrawFromYieldYakVault(\r\n        address _cErc20Contract\r\n    ) public nonReentrant()  {\r\n        require(isRegistered[msg.sender], \"Caller not registered\");\r\n        require(stakedBalance[msg.sender] > 0, \"Caller has not supplied funds\");\r\n        User memory user = pensionServiceApplicant[msg.sender];\r\n        require(block.timestamp > user.client.lockTime, \"Unable to withdraw before your locktime expires\");\r\n      \r\n        uint256 redeemResult;\r\n\r\n        yakVault.withdraw(stakedBalance[msg.sender]);\r\n        hasRedeemed[msg.sender] = true;\r\n        stakedBalance[msg.sender] = stakedBalance[msg.sender].sub(stakedBalance[msg.sender]);\r\n\r\n        emit Redeem(\"withdraw was successful\");\r\n\r\n    }\r\n\r\n    function setPlan(\r\n        address _underlyingAsset, \r\n        string memory _ipfsHashOfUserPensionDetails, \r\n        uint _approvedAmountToSpend, \r\n        uint _amountToSpend, \r\n        uint _timeDurationOfDeposit, \r\n        uint _lockTime) \r\n        public {\r\n        require(_approvedAmountToSpend > _amountToSpend, \"Set an amount greater than the recurring amount\");\r\n        require(_amountToSpend >= 0, \"approve an amount greater than 0\");\r\n        require(isRegistered[msg.sender], \"Caller has to be Registered\");\r\n        User storage user = pensionServiceApplicant[msg.sender];\r\n        require(user.client.lockTime == 0, \"Caller already has a lock Time Set\");\r\n        user.client.underlyingAsset = _underlyingAsset;\r\n        user.client.lockTime = block.timestamp.add(_lockTime);\r\n        user.client.timeDurationOfdeposit = block.timestamp.add(_timeDurationOfDeposit);\r\n        user.client.ipfsHashOfUserPensionDetails = _ipfsHashOfUserPensionDetails;\r\n        user.client.approvedAmountToSpend = _approvedAmountToSpend;\r\n        user.client.amountToSpend = _amountToSpend;\r\n        user.client.hasPlan = true;\r\n\r\n        emit Plan(msg.sender, user.client.ipfsHashOfUserPensionDetails, user.client.lockTime);\r\n    }\r\n\r\n    // function getAssetAddress(address ctokenAddress) public view returns(address) {\r\n    //     CTokenInterface cToken = CTokenInterface(ctokenAddress);\r\n    //     return cToken.underlying();\r\n\r\n    // }\r\n\r\n    // function getAccruedInterest(address _asset) public view returns(uint) {\r\n    //     User memory user = pensionServiceApplicant[msg.sender];\r\n    //     require(isRegistered[msg.sender], \"Caller not registered\");\r\n    //     CTokenInterface ctoken = CTokenInterface(user.client.underlyingAsset);\r\n    //     uint supplyRatePerBlock = ctoken.supplyRatePerBlock();\r\n    //     uint accInterest = assets[_asset][msg.sender].mul(supplyRatePerBlock);\r\n    //     return accInterest;\r\n    // }\r\n\r\n    function withdrawPenalty(address _asset) public onlyOwner() {\r\n        require(assets[_asset][address(this)] > 0, \"Cannot withdraw 0 amount\");\r\n        require(IERC20(_asset).transfer(admin, assets[_asset][address(this)]));\r\n    }\r\n\r\n    // helper function to be deleted on migration to mainet\r\n    function updateLockTime() public {\r\n        require(isRegistered[msg.sender], \"caller is not registered\");\r\n        User storage user = pensionServiceApplicant[msg.sender];\r\n        user.client.lockTime = 0;\r\n    }\r\n\r\n\r\n}",
  "sourcePath": "/mnt/c/Users/chuks/Desktop/Project/beimaAvalanche/contracts/BeimaAva.sol",
  "compiler": {
    "name": "solc",
    "version": "0.8.0+commit.c7dfd78e.Emscripten.clang"
  },
  "schemaVersion": "3.3.4",
  "updatedAt": "2022-01-31T15:59:40.724Z",
  "devdoc": {
    "kind": "dev",
    "methods": {
      "owner()": {
        "details": "Returns the address of the current owner."
      },
      "paused()": {
        "details": "Returns true if the contract is paused, and false otherwise."
      },
      "renounceOwnership()": {
        "details": "Leaves the contract without owner. It will not be possible to call `onlyOwner` functions anymore. Can only be called by the current owner. NOTE: Renouncing ownership will leave the contract without an owner, thereby removing any functionality that is only available to the owner."
      },
      "transferOwnership(address)": {
        "details": "Transfers ownership of the contract to a new account (`newOwner`). Can only be called by the current owner."
      }
    },
    "version": 1
  },
  "userdoc": {
    "kind": "user",
    "methods": {},
    "version": 1
  }
}